:020000040800F2
:100000000028002015190008A5180008AB180008E2
:10001000B1180008B7180008BD180008000000005B
:10002000000000000000000000000000C3180008ED
:10003000CF18000800000000DB180008E7180008CF
:100040005D1900085D1900085D1900085D190008B8
:100050005D1900085D1900085D1900085D190008A8
:100060005D1900085D1900085D1900085D19000898
:100070005D1900085D1900085D1900085D19000888
:100080005D1900085D1900085D1900085D19000878
:100090005D1900085D1900085D1900085D19000868
:1000A0005D1900085D1900085D1900085D19000858
:1000B000F51800085D190008000000005D1900082F
:1000C0005D19000800000000000000005D19000834
:1000D000000000005D1900085D1900080000000024
:1000E0005D1900085D1900085D1900080000000096
:1000F0000000000000000000000000000000000000
:0C01000000000000000000005FF808F1A3
:10010C0010B5054C237833B9044B13B10448AFF345
:10011C0000800123237010BD580000200000000057
:10012C00AC2F000808B5034B1BB103490348AFF3D0
:10013C00008008BD000000005C000020AC2F00080F
:10014C0080B483B000AF7860094A7B6852F82330E2
:10015C00012B06D1064A7B68002142F823100123AB
:10016C0000E0002318460C37BD4680BC704700BF2A
:10017C007400002080B483B000AF7860044A7B68C0
:10018C00012142F8231000BF0C37BD4680BC7047DC
:10019C007400002080B582B000AF00237B6063E068
:1001AC00354A7B6852F8232034497B6841F8232078
:1001BC00334A7B6852F823202F497B6841F823206F
:1001CC00304A7B6852F823309BB219462E4801F016
:1001DC00ADFE034619462A4A7B6842F82310264A8C
:1001EC007B6852F8232026497B6851F823309A42C9
:1001FC0037D1214A7B6852F8232020497B6851F87B
:10020C0023309A422DD11D4A7B6852F823201F4976
:10021C007B6851F823309A4215D0184A7B6852F803
:10022C0023201A497B6841F82320184A7B6852F82E
:10023C002330002B15D1164B4FF4FA721A607868E4
:10024C00FFF798FF0DE0124B1B68013B104A13603F
:10025C000F4B1B68002B04D10C4A7B68012142F820
:10026C0023107B6801337B607B68022B98DD00BF19
:10027C0000BF0837BD4680BD1800002024000020B8
:10028C000C0000200000002000080140300000207D
:10029C003C00002080B582B000AF0346FB71FB79B7
:1002AC00032B4BD801A252F823F000BFC90200085F
:1002BC00E9020008290300080903000801220821AB
:1002CC00214801F04AFE012204211F4801F045FE9D
:1002DC00012202211C4801F040FE30E001220821DD
:1002EC00194801F03AFE01220421174801F035FEAD
:1002FC0000220221144801F030FE20E001220821E6
:10030C00114801F02AFE002204210F4801F025FEBD
:10031C00012202210C4801F020FE10E000220821ED
:10032C00094801F01AFE01220421074801F015FECC
:10033C0001220221044801F010FE00E000BF00BFC2
:10034C000837BD4680BD00BF0008014080B582B0B3
:10035C0000AF0346FB71FB79032B4BD801A252F87B
:10036C0023F000BF81030008A1030008E10300088B
:10037C00C103000801224021214801F0EEFD0122B9
:10038C0020211F4801F0E9FD012210211C4801F039
:10039C00E4FD30E001224021194801F0DEFD01228C
:1003AC002021174801F0D9FD00221021144801F03A
:1003BC00D4FD20E001224021114801F0CEFD0022A5
:1003CC0020210F4801F0C9FD012210210C4801F039
:1003DC00C4FD10E000224021094801F0BEFD0122BD
:1003EC002021074801F0B9FD01221021044801F039
:1003FC00B4FD00E000BF00BF0837BD4680BD00BFA4
:10040C000008014080B582B000AF0346FB71FB7958
:10041C00032B0ED0032B1EDC012B13D0022B1AD175
:10042C0008210F4801F0B1FD40210D4801F0ADFD50
:10043C0012E004210A4801F0A8FD2021084801F02F
:10044C00A4FD09E00221064801F09FFD102104489B
:10045C0001F09BFD00E000BF00BF0837BD4680BD2A
:10046C000008014080B582B000AF78607B68092B32
:10047C0000F2808101A252F823F000BFB104000801
:10048C00F90400084105000889050008D105000899
:10049C001906000861060008A9060008F106000804
:1004AC003907000800220121B54801F056FD002251
:1004BC000221B34801F051FD00220421B04801F0A3
:1004CC004CFD00220821AE4801F047FD002210210E
:1004DC00AB4801F042FD00222021A94801F03DFD6E
:1004EC0001224021A64801F038FD44E101220121FE
:1004FC00A34801F032FD00220221A14801F02DFD9C
:10050C00002204219E4801F028FD012208219C486C
:10051C0001F023FD01221021994801F01EFD01225A
:10052C002021974801F019FD01224021944801F047
:10053C0014FD20E100220121914801F00EFD002262
:10054C0002218F4801F009FD012204218C4801F0A1
:10055C0004FD002208218A4801F0FFFC0022102132
:10056C00874801F0FAFC01222021854801F0F5FCB6
:10057C0000224021824801F0F0FCFCE00022012125
:10058C007F4801F0EAFC002202217D4801F0E5FCE5
:10059C00002204217A4801F0E0FC0022082178486E
:1005AC0001F0DBFC01221021754801F0D6FC012280
:1005BC002021734801F0D1FC00224021704801F049
:1005CC00CCFCD8E0012201216D4801F0C6FC0022D0
:1005DC0002216B4801F0C1FC00220421684801F0A3
:1005EC00BCFC01220821664801F0B7FC0122102155
:1005FC00634801F0B2FC00222021614801F0ADFCFF
:10060C00002240215E4801F0A8FCB4E00022012148
:10061C005B4801F0A2FC01220221594801F09DFC2B
:10062C0000220421564801F098FC0022082154486D
:10063C0001F093FC01221021514801F08EFC0022A4
:10064C0020214F4801F089FC002240214C4801F048
:10065C0084FC90E000220121494801F07EFC01223B
:10066C000221474801F079FC00220421444801F0A2
:10067C0074FC00220821424801F06FFC002210217A
:10068C003F4801F06AFC002220213D4801F065FC46
:10069C00002240213A4801F060FC6CE0002201216C
:1006AC00374801F05AFC00220221354801F055FC74
:1006BC0000220421324801F050FC0122082130486C
:1006CC0001F04BFC012210212D4801F046FC0122C7
:1006DC0020212B4801F041FC01224021284801F047
:1006EC003CFC48E000220121254801F036FC0022A8
:1006FC000221234801F031FC00220421204801F0A2
:10070C002CFC002208211E4801F027FC002210219D
:10071C001B4801F022FC00222021194801F01DFC8D
:10072C0000224021164801F018FC24E0002201218F
:10073C00134801F012FC00220221114801F00DFCBB
:10074C00002204210E4801F008FC002208210C486C
:10075C0001F003FC01221021094801F0FEFB0022EC
:10076C002021074801F0F9FB00224021044801F048
:10077C00F4FB00E000BF00BF0837BD4680BD00BFE2
:10078C00000C014080B582B000AF78607B68092B0B
:10079C0000F2BC8101A252F823F000BFD10700087F
:1007AC002508000879080008CD0800082109000870
:1007BC0075090008C90900081D0A0008710A00081B
:1007CC00C50A000800228021D34801F0C6FB002294
:1007DC004FF48071D04801F0C0FB00224FF400713F
:1007EC00CD4801F0BAFB00224FF48061CA4801F0F9
:1007FC00B4FB00224FF40061C74801F0AEFB0022AD
:10080C004FF48051C44801F0A8FB01224FF4005171
:10081C00C14801F0A2FB7AE101228021BE4801F01F
:10082C009CFB00224FF48071BB4801F096FB002228
:10083C004FF40071B84801F090FB01224FF4806135
:10084C00B54801F08AFB01224FF40061B24801F077
:10085C0084FB01224FF48051AF4801F07EFB012252
:10086C004FF40051AC4801F078FB50E1002280219C
:10087C00A94801F072FB00224FF48071A64801F0E8
:10088C006CFB01224FF40071A34801F066FB0022BF
:10089C004FF48061A04801F060FB00224FF400612E
:1008AC009D4801F05AFB01224FF480519A4801F007
:1008BC0054FB00224FF40051974801F04EFB26E107
:1008CC0000228021944801F048FB00224FF48071F3
:1008DC00914801F042FB00224FF400718E4801F068
:1008EC003CFB00224FF480618B4801F036FB012267
:1008FC004FF40061884801F030FB01224FF4805125
:10090C00854801F02AFB00224FF40051824801F087
:10091C0024FBFCE0012280217F4801F01EFB002219
:10092C004FF480717C4801F018FB00224FF40071E9
:10093C00794801F012FB01224FF48061764801F0F6
:10094C000CFB01224FF40061734801F006FB0022FE
:10095C004FF48051704801F000FB00224FF400511D
:10096C006D4801F0FAFAD2E0002280216A4801F0C9
:10097C00F4FA01224FF48071674801F0EEFA00227C
:10098C004FF40071644801F0E8FA00224FF48061E2
:10099C00614801F0E2FA01224FF400615E4801F077
:1009AC00DCFA00224FF480515B4801F0D6FA0022A9
:1009BC004FF40051584801F0D0FAA8E000228021F1
:1009CC00554801F0CAFA01224FF48071524801F0E7
:1009DC00C4FA00224FF400714F4801F0BEFA002215
:1009EC004FF480614C4801F0B8FA00224FF40061DA
:1009FC00494801F0B2FA00224FF48051464801F008
:100A0C00ACFA00224FF40051434801F0A6FA7EE004
:100A1C0000228021404801F0A0FA00224FF480719E
:100A2C003D4801F09AFA00224FF400713A4801F067
:100A3C0094FA01224FF48061374801F08EFA0122BA
:100A4C004FF40061344801F088FA01224FF48051D0
:100A5C00314801F082FA01224FF400512E4801F086
:100A6C007CFA54E0002280212B4801F076FA002217
:100A7C004FF48071284801F070FA00224FF4007195
:100A8C00254801F06AFA00224FF48061224801F0F7
:100A9C0064FA00224FF400611F4801F05EFA002254
:100AAC004FF480511C4801F058FA00224FF40051C9
:100ABC00194801F052FA2AE000228021164801F070
:100ACC004CFA00224FF48071134801F046FA0022D0
:100ADC004FF40071104801F040FA00224FF480618D
:100AEC000D4801F03AFA01224FF400610A4801F076
:100AFC0034FA00224FF48051074801F02EFA0022FC
:100B0C004FF40051044801F028FA00E000BF00BF88
:100B1C000837BD4680BD00BF000C014080B500AF5A
:100B2C0000228021054801F018FA01224FF480714F
:100B3C00024801F012FA00BF80BD00BF000801405E
:100B4C0080B500AF01228021054801F006FA002291
:100B5C004FF48071024801F000FA00BF80BD00BF65
:100B6C000008014080B500AF00224FF40071054829
:100B7C0001F0F3F901224FF48061024801F0EDF924
:100B8C0000BF80BD0008014080B500AF01224FF4CA
:100B9C000071054801F0E1F900224FF48061024830
:100BAC0001F0DBF900BF80BD0008014080B500AF4B
:100BBC0000224FF40061054801F0CFF901224FF4F7
:100BCC008051024801F0C9F900BF80BD0008014006
:100BDC0080B500AF01224FF40061054801F0BDF96A
:100BEC0000224FF48051024801F0B7F900BF80BDDC
:100BFC000008014080B582B000AF78603960FFF723
:100C0C008DFF7B680C4A82FB03129210DB17D31A00
:100C1C001846FFF727FCFFF7A5FF3B68064A82FB47
:100C2C0003129210DB17D31A1846FFF7ABFD00BF67
:100C3C000837BD4680BD00BF6766666680B582B06A
:100C4C0000AF78603960FFF77BFF7A68114B83FB4C
:100C5C0002139910D317C91A0B469B000B445B0067
:100C6C00D11A0846FFF7FEFBFFF78EFF3A68094BD7
:100C7C0083FB02139910D317C91A0B469B000B4424
:100C8C005B00D11A0846FFF77DFD00BF0837BD4653
:100C9C0080BD00BF6766666680B582B000AF7860C5
:100CAC00FFF784FF7B68064A82FB03129210DB1766
:100CBC00D31A1846FFF7D6FB00BF0837BD4680BDD8
:100CCC006766666680B582B000AF7860FFF780FF1C
:100CDC007A68094B83FB02139910D317C91A0B4678
:100CEC009B000B445B00D11A0846FFF74BFD00BF7D
:100CFC000837BD4680BD00BF6766666680B500AF2D
:100D0C000020FFF71DFA0346012B08D101224FF4F6
:100D1C00FC51994801F021F9984B02221A70974B1B
:100D2C001B78012B40F02581954B1B78032B67D842
:100D3C0001A252F823F000BF550D0008650D000804
:100D4C009D0D0008D50D00088D4B01221A706421F1
:100D5C00002000F01BFD5AE00120FFF79BFA894BA5
:100D6C001B68012B4ED1884B1B68013B864A1360D4
:100D7C00854B1B68002B06D1844B1B68824A136081
:100D8C007F4B02221A706421002000F0FFFC39E036
:100D9C000220FFF77FFA7B4B1B68012B34D17A4B77
:100DAC001B68013B784A1360774B1B68002B06D1FC
:100DBC00774B1B68744A1360714B03221A706421C1
:100DCC00002000F0E3FC1FE00320FFF763FA6D4BFB
:100DDC001B68012B1AD16C4B1B68013B6A4A1360D0
:100DEC00694B1B68002B06D16A4B1B68664A136063
:100DFC00634B01221A706421002000F0C7FC05E04F
:100E0C0000BF04E000BF02E000BF00E000BF624B87
:100E1C001B78032B66D801A252F823F0390E000878
:100E2C00490E0008810E0008B90E00085A4B022228
:100E3C001A706421012000F0A9FC5AE00120FFF790
:100E4C0085FA504B5B68012B4ED1544B1B68013B10
:100E5C00524A1360514B1B68002B06D14B4B1B683D
:100E6C004E4A13604C4B02221A706421012000F090
:100E7C008DFC39E00220FFF769FA424B5B68012BCD
:100E8C0034D1464B1B68013B444A1360434B1B68EF
:100E9C00002B06D13E4B1B68404A13603E4B03228D
:100EAC001A706421012000F071FC1FE00320FFF791
:100EBC004DFA344B5B68012B1AD1384B1B68013B44
:100ECC00364A1360354B1B68002B06D1314B1B681F
:100EDC00324A1360304B01221A706421012000F059
:100EEC0055FC05E000BF04E000BF02E000BF00E0DD
:100EFC0000BF2B4B1B78022B22D0022B34DC002B97
:100F0C0002D0012B08D02FE0254B01221A700121B1
:100F1C00022000F03BFC2CE01A4B9B68012B25D1E6
:100F2C00194B1B681D4A126811461846FFF762FEE2
:100F3C001B4B02221A703221022000F027FC15E014
:100F4C00104B9B68012B13D10F4B1B68134A126873
:100F5C0011461846FFF772FE114B01221A7032210E
:100F6C00022000F013FC03E000BF02E000BF00E031
:100F7C0000BF00BF80BD00BF000801408000002002
:100F8C008A0000200801002090000020440000206E
:100F9C0048000020400000208B000020940000201E
:100FAC008C00002080B500AF514B1B78002B02D079
:100FBC00012B0DD018E001227E214E4800F0CDFF10
:100FCC004B4B01221A701921032000F0DFFB0BE0C0
:100FDC00494BDB68012B06D10120FFF713FA1921CD
:100FEC00032000F0D3FB00BF444B1B78002B02D036
:100FFC00012B14D03FE00120FFF7A2F80346012B90
:10100C0036D13E4B01221A703D4B1B6801333C4AD2
:10101C0013603C4B1B6801333A4A136028E00120F3
:10102C00FFF78EF80346012B10D1354B1B680133AB
:10103C00334A1360334B1B680133324A1360304B15
:10104C001B68622B02DD2E4B01221A600220FFF777
:10105C0077F80346012B0DD101224FF4FC512548A2
:10106C0000F07BFF284B01221A7000F003FA01E01C
:10107C0000BF00E000BF254B1B78022B1FD0022BBA
:10108C002EDC002B02D0012B08D029E01F4B0122B3
:10109C001A701921042000F079FB26E0164B1B690D
:1010AC00012B1FD1164B1B681846FFF7F5FD174B8C
:1010BC0002221A701921042000F068FB12E00E4B7A
:1010CC001B69012B10D10E4B1B681846FFF7FAFD5C
:1010DC001921042000F05AFB0C4B01221A7003E07A
:1010EC0000BF02E000BF00E000BF00BF80BD00BF3A
:1010FC00810000200008014008010020830000202E
:10110C0040000020440000208000002082000020CD
:10111C0080B500AF514B1B78002B02D0012B0DD0AA
:10112C0018E001227E214E4800F017FF4B4B0122A4
:10113C001A701921052000F029FB0BE0494B5B6963
:10114C00012B06D10320FFF75DF91921052000F0D2
:10115C001DFB00BF444B1B78002B02D0012B14D07D
:10116C003FE00120FEF7ECFF0346012B36D13E4B4E
:10117C0001221A703D4B1B6801333C4A13603C4BF7
:10118C001B6801333A4A136028E00120FEF7D8FFB0
:10119C000346012B10D1354B1B680133334A1360C6
:1011AC00334B1B680133324A1360304B1B68622B84
:1011BC0002DD2E4B01221A600220FEF7C1FF03460E
:1011CC00012B0DD101224FF4FC51254800F0C5FE36
:1011DC00284B01221A7000F04DF901E000BF00E02D
:1011EC0000BF254B1B78022B1FD0022B2EDC002BB3
:1011FC0002D0012B08D029E01F4B01221A701921B3
:10120C00062000F0C3FA26E0164B9B69012B1FD178
:10121C00164B1B681846FFF73FFD174B02221A703E
:10122C001921062000F0B2FA12E00E4B9B69012B3B
:10123C0010D10E4B1B681846FFF744FD19210620F0
:10124C0000F0A4FA0C4B01221A7003E000BF02E07C
:10125C0000BF00E000BF00BF80BD00BF84000020C5
:10126C0000080140080100208600002048000020F2
:10127C0040000020800000208500002080B500AFD9
:10128C00514B1B78002B02D0012B0DD018E0012202
:10129C007E214E4800F061FE4B4B01221A70192141
:1012AC00072000F073FA0BE0494BDB69012B06D1E8
:1012BC000220FFF7A7F81921072000F067FA00BFFA
:1012CC00444B1B78002B02D0012B14D03FE00120A3
:1012DC00FEF736FF0346012B36D13E4B01221A7026
:1012EC003D4B1B6801333C4A13603C4B1B6801337C
:1012FC003A4A136028E00120FEF722FF0346012B37
:10130C0010D1354B1B680133334A1360334B1B68C8
:10131C000133324A1360304B1B68622B02DD2E4BBB
:10132C0001221A600220FEF70BFF0346012B0DD1A0
:10133C0001224FF4FC51254800F00FFE284B0122EE
:10134C001A7000F097F801E000BF00E000BF254BD9
:10135C001B78022B1FD0022B2EDC002B02D0012B72
:10136C0008D029E01F4B01221A701921082000F027
:10137C000DFA26E0164B1B6A012B1FD1164B1B686E
:10138C001846FFF789FC174B02221A701921082006
:10139C0000F0FCF912E00E4B1B6A012B10D10E4B26
:1013AC001B681846FFF78EFC1921082000F0EEF997
:1013BC000C4B01221A7003E000BF02E000BF00E0FA
:1013CC0000BF00BF80BD00BF8700002000080140A7
:1013DC00080100208900002044000020400000206B
:1013EC00800000208800002080B500AF1F4B1B78C8
:1013FC00042B1ED0042B30DC022B02D0032B0CD080
:10140C002BE0FFF7CFFD0020FEF79AFE0346012BE1
:10141C0025D1164B03221A7021E0FFF779FE00202C
:10142C00FEF78EFE0346012B1BD1104B04221A70C3
:10143C0017E0FFF723FF0020FEF782FE0346012B87
:10144C0011D101224FF4FC51094800F086FD074BE5
:10145C0001221A7000F00EF805E000BF04E000BF96
:10146C0002E000BF00E000BF00BF80BD8000002094
:10147C000008014080B400AF194B01221A70194BBF
:10148C0000221A70184B00221A70184B00221A7086
:10149C00174B00221A70174B00221A70164B0022A1
:1014AC001A70164B00221A70154B00221A70154B2D
:1014BC0000221A70144B00221A70144B00221A705E
:1014CC00134B00221A70134B1B68134A1360134BF7
:1014DC001B68134A136000BFBD4680BC704700BF39
:1014EC00800000208100002082000020830000206A
:1014FC00840000208500002086000020870000204A
:10150C0088000020890000208A0000208B00002029
:10151C008C0000204000002090000020440000209F
:10152C009400002080B500AF00F014FA00F014F81D
:10153C0000F09AF800F04CF8064801F06DF9FFF74E
:10154C0099FF0020FEF7A6FEFFF7D8FBFFF74CFF34
:10155C00FAE700BF9800002080B590B000AF07F10B
:10156C00180328220021184601F0EEFC3B1D002236
:10157C001A605A609A60DA601A610223BB61012317
:10158C00BB621023FB6200237B6307F11803184630
:10159C0000F014FD0346002B01D000F0F2F80F23ED
:1015AC007B600023BB600023FB6000233B610023B6
:1015BC007B613B1D0021184600F082FF0346002B87
:1015CC0001D000F0DEF800BF4037BD4680BD000002
:1015DC0080B586B000AF07F1080300221A605A608C
:1015EC009A60DA603B4600221A605A601D4B4FF03D
:1015FC0080421A601B4B41F63F725A60194B002215
:10160C009A60184B0A22DA60164B00221A61154BAD
:10161C0000229A61134801F0AFF80346002B01D069
:10162C0000F0AFF84FF48053BB6007F10803194684
:10163C000C4801F045FA0346002B01D000F0A1F84C
:10164C0000233B6000237B603B461946054801F0B4
:10165C0011FC0346002B01D000F093F800BF1837A3
:10166C00BD4680BD9800002080B586B000AF07F164
:10167C00080300221A605A609A60DA602B4B9B694F
:10168C002A4A43F004039361284B9B6903F004033B
:10169C007B607B68254B9B69244A43F0080393616C
:1016AC00224B9B6903F008033B603B6800227E21C0
:1016BC001F4800F052FC01224FF4FC511C4800F072
:1016CC004CFC002243F6FF711A4800F046FC41F630
:1016DC00FE73BB600123FB6000233B6102237B6133
:1016EC0007F108031946124800F0A4FA43F6FF73F9
:1016FC00BB600123FB6000233B6102237B6107F18C
:10170C00080319460B4800F095FA4FF46043BB6090
:10171C000023FB6001233B6107F1080319460448D1
:10172C0000F088FA00BF1837BD4680BD001002409B
:10173C0000080140000C014080B582B000AF786019
:10174C00002000F03BF8012000F038F8022000F0F7
:10175C0035F8032000F032F8042000F02FF80520B3
:10176C0000F02CF8062000F029F8072000F026F8ED
:10177C00082000F023F8FEF70DFD00BF0837BD462A
:10178C0080BD80B400AF72B600BFFEE780B483B0FA
:10179C0000AF7860396007497B683A6841F82320CC
:1017AC00054A7B68002142F8231000BF0C37BD4668
:1017BC0080BC7047E00000200801002080B483B09A
:1017CC0000AF78600F4A7B6852F82330002B13DD92
:1017DC000C4A7B6852F823305A1E0A497B6841F840
:1017EC002320084A7B6852F82330002B04DC064A7D
:1017FC007B68012142F8231000BF0C37BD4680BC2A
:10180C00704700BFE00000200801002080B483B0C6
:10181C0000AF0E4B9B690D4A43F0010393610B4BD8
:10182C009B6903F001037B607B68084BDB69074A0B
:10183C0043F08053D361054BDB6903F080533B606D
:10184C003B6800BF0C37BD4680BC7047001002409F
:10185C0080B584B000AF78607B681B68B3F1804FB3
:10186C0013D10C4BDB690B4A43F00103D361094BD9
:10187C00DB6903F00103FB60FB68002200211C20E4
:10188C0000F0A1F91C2000F0BAF900BF1037BD46DA
:10189C0080BD00BF0010024080B400AFFEE780B4F2
:1018AC0000AFFEE780B400AFFEE780B400AFFEE708
:1018BC0080B400AFFEE780B400AF00BFBD4680BC73
:1018CC00704780B400AF00BFBD4680BC704780B489
:1018DC0000AF00BFBD4680BC704780B500AF00F0C4
:1018EC007FF800BF80BD000080B500AF024800F05B
:1018FC00DFFF00BF80BD00BF9800002080B400AFA8
:10190C0000BFBD4680BC7047FFF7F8FF0B480C4981
:10191C000C4A002302E0D458C4500433C4188C423F
:10192C00F9D3094A094C002301E013600432A242A6
:10193C00FBD301F011FBFFF7F5FD70470000002011
:10194C0058000020F02F000858000020340100201F
:10195C00FEE7000080B500AF084B1B68074A43F058
:10196C0010031360032000F023F90F2000F008F897
:10197C00FFF74CFF0023184680BD00BF002002403B
:10198C0080B582B000AF7860124B1A68124B1B788E
:10199C0019464FF47A73B3FBF1F3B2FBF3F3184629
:1019AC0000F03BF90346002B01D001230EE07B68CD
:1019BC000F2B0AD8002279684FF0FF3000F003F9A2
:1019CC00064A7B681360002300E0012318460837A1
:1019DC00BD4680BD4C00002054000020500000206B
:1019EC0080B400AF054B1B781A46054B1B6813449B
:1019FC00034A136000BFBD4680BC704754000020F2
:101A0C003001002080B400AF024B1B681846BD4665
:101A1C0080BC70473001002080B485B000AF786086
:101A2C007B6803F00703FB600C4BDB68BB60BA6898
:101A3C004FF6FF031340BB60FB681A02BB681343ED
:101A4C0043F0BF6343F40033BB60044ABB68D3600C
:101A5C0000BF1437BD4680BC704700BF00ED00E0EE
:101A6C0080B400AF044BDB681B0A03F00703184675
:101A7C00BD4680BC704700BF00ED00E080B483B071
:101A8C0000AF0346FB7197F90730002B0BDBFB799A
:101A9C0003F01F02064997F907305B09012000FA91
:101AAC0002F241F8232000BF0C37BD4680BC7047C2
:101ABC0000E100E080B483B000AF03463960FB71F5
:101ACC0097F90730002B0ADB3B68DAB20C4997F91F
:101ADC0007301201D2B20B4483F800230AE03B68B2
:101AEC00DAB20849FB7903F00F03043B1201D2B2BE
:101AFC000B441A7600BF0C37BD4680BC704700BF44
:101B0C0000E100E000ED00E080B489B000AFF860C7
:101B1C00B9607A60FB6803F00703FB61FB69C3F1F2
:101B2C000703042B28BF0423BB61FB690433062B7A
:101B3C0002D9FB69033B00E000237B614FF0FF32CD
:101B4C00BB6902FA03F3DA43BB681A407B699A401B
:101B5C004FF0FF317B6901FA03F3D9437B680B40EB
:101B6C00134318462437BD4680BC704780B582B0FD
:101B7C0000AF78607B68013BB3F1807F01D3012318
:101B8C000FE00A4A7B68013B53600F214FF0FF3096
:101B9C00FFF790FF054B00229A60044B07221A6056
:101BAC00002318460837BD4680BD00BF10E000E09A
:101BBC0080B582B000AF78607868FFF72DFF00BF6A
:101BCC000837BD4680BD80B586B000AF0346B9600E
:101BDC007A60FB7300237B61FFF742FF78617A68C0
:101BEC00B9687869FFF790FF024697F90F301146F4
:101BFC001846FFF75FFF00BF1837BD4680BD80B5A4
:101C0C0082B000AF0346FB7197F907301846FFF717
:101C1C0035FF00BF0837BD4680BD80B582B000AF30
:101C2C0078607868FFF7A2FF034618460837BD4670
:101C3C0080BD000080B48BB000AF786039600023A9
:101C4C007B6200233B6261E101227B6A02FA03F3AF
:101C5C00FB613B681B68FA691340BB61BA69FB699D
:101C6C009A4240F050813B685B68974A93425ED041
:101C7C00954A934275D8954A934258D0934A9342C9
:101C8C006FD8934A934252D0914A934269D8914A61
:101C9C0093424CD08F4A934263D88F4A934246D09A
:101CAC008D4A93425DD8122B2AD8122B59D801A2F7
:101CBC0052F823F03B1D0008151D0008271D0008D5
:101CCC00691D00086F1D00086F1D00086F1D0008BE
:101CDC006F1D00086F1D00086F1D00086F1D0008A8
:101CEC006F1D00086F1D00086F1D00086F1D000898
:101CFC006F1D00086F1D00081D1D0008311D000818
:101D0C00764A934213D02CE03B68DB683B6229E0B7
:101D1C003B68DB6804333B6224E03B68DB680833D8
:101D2C003B621FE03B68DB680C333B621AE03B68AC
:101D3C009B68002B02D104233B6213E03B689B6839
:101D4C00012B05D108233B627B68FA691A6109E013
:101D5C0008233B627B68FA695A6103E000233B620B
:101D6C0000E000BFBB69FF2B01D87B6801E07B68FA
:101D7C0004337B61BB69FF2B02D87B6A9B0002E0BA
:101D8C007B6A083B9B003B617B691A680F213B69AE
:101D9C0001FA03F3DB431A40396A3B6901FA03F396
:101DAC001A437B691A603B685B6803F08053002B15
:101DBC0000F0A9804A4B9B69494A43F001039361A7
:101DCC00474B9B6903F00103BB60BB68454A7B6AC8
:101DDC009B08023352F82330FB607B6A03F0030349
:101DEC009B000F2202FA03F3DB43FA681340FB60FB
:101DFC007B683D4A93420DD07B683C4A934207D0A6
:101E0C007B683B4A934201D1022304E0032302E0A6
:101E1C00012300E000237A6A02F00302920093404F
:101E2C00FA681343FB602F497B6A9B080233FA68FC
:101E3C0041F823203B685B6803F48013002B06D029
:101E4C002C4B9A682B49BB6913438B6006E0294BDA
:101E5C009A68BB69DB43274913408B603B685B681E
:101E6C0003F40013002B06D0224BDA682149BB691E
:101E7C001343CB6006E01F4BDA68BB69DB431D499B
:101E8C001340CB603B685B6803F40033002B06D037
:101E9C00184B5A681749BB6913434B6006E0154B46
:101EAC005A68BB69DB43134913404B603B685B6862
:101EBC0003F48033002B1FD00E4B1A680D49BB69FD
:101ECC0013430B601FE000BF000032100000311004
:101EDC000000221000002110000012100000111050
:101EEC00001002400000014000080140000C0140BD
:101EFC0000100140000401400B4B1A68BB69DB4326
:101F0C00094913400B607B6A01337B623B681A689A
:101F1C007B6A22FA03F3002B7FF496AE00BF00BF5E
:101F2C002C37BD4680BC70470004014080B485B09E
:101F3C0000AF78600B467B807B689A687B88134087
:101F4C00002B02D00123FB7301E00023FB73FB7B0E
:101F5C0018461437BD4680BC704780B483B000AFC0
:101F6C0078600B467B8013467B707B78002B03D00C
:101F7C007A887B681A6103E07B881A047B681A6193
:101F8C0000BF0C37BD4680BC704780B485B000AF35
:101F9C0078600B467B807B68DB68FB607A88FB682B
:101FAC0013401A04FB68D9437B880B401A437B68A7
:101FBC001A6100BF1437BD4680BC704780B586B02F
:101FCC0000AF78607B68002B01D1012372E27B6843
:101FDC001B6803F00103002B00F08780924B5B68B9
:101FEC0003F00C03042B0CD08F4B5B6803F00C0339
:101FFC00082B12D18C4B5B6803F48033B3F5803F14
:10200C000BD1894B1B6803F40033002B6CD07B681D
:10201C005B68002B68D101234CE27B685B68B3F5ED
:10202C00803F06D1804B1B687F4A43F4803313609A
:10203C002EE07B685B68002B0CD17B4B1B687A4ACB
:10204C0023F480331360784B1B68774A23F4802386
:10205C0013601DE07B685B68B3F5A02F0CD1724B4D
:10206C001B68714A43F4802313606F4B1B686E4AE4
:10207C0043F4803313600BE06B4B1B686A4A23F408
:10208C0080331360684B1B68674A23F4802313600A
:10209C007B685B68002B13D0FFF7B4FC386108E059
:1020AC00FFF7B0FC02463B69D31A642B01D903231A
:1020BC0000E25D4B1B6803F40033002BF0D014E0FE
:1020CC00FFF7A0FC386108E0FFF79CFC02463B6977
:1020DC00D31A642B01D90323ECE1534B1B6803F493
:1020EC000033002BF0D100E000BF7B681B6803F0CD
:1020FC000203002B63D04C4B5B6803F00C03002BEA
:10210C000BD0494B5B6803F00C03082B1CD1464BDE
:10211C005B6803F48033002B16D1434B1B6803F030
:10212C000203002B05D07B681B69012B01D0012316
:10213C00C0E13D4B1B6823F0F8027B685B69DB0058
:10214C00394913430B603AE07B681B69002B20D0A4
:10215C00364B01221A60FFF755FC386108E0FFF797
:10216C0051FC02463B69D31A022B01D90323A1E18E
:10217C002D4B1B6803F00203002BF0D02A4B1B687D
:10218C0023F0F8027B685B69DB00274913430B6083
:10219C0015E0264B00221A60FFF734FC386108E08A
:1021AC00FFF730FC02463B69D31A022B01D90323FB
:1021BC0080E11D4B1B6803F00203002BF0D17B6800
:1021CC001B6803F00803002B3AD07B689B69002B3B
:1021DC0019D0174B01221A60FFF714FC386108E084
:1021EC00FFF710FC02463B69D31A022B01D90323DB
:1021FC0060E10D4B5B6A03F00203002BF0D0012071
:10220C0000F09CFA1CE00A4B00221A60FFF7FAFB64
:10221C0038610FE0FFF7F6FB02463B69D31A022B3D
:10222C0008D9032346E100BF0010024000004242DF
:10223C0080044242924B5B6A03F00203002BE9D10B
:10224C007B681B6803F00403002B00F0A6800023BE
:10225C00FB758B4BDB6903F08053002B0DD1884B46
:10226C00DB69874A43F08053D361854BDB6903F00C
:10227C008053BB60BB680123FB75824B1B6803F466
:10228C008073002B18D17F4B1B687E4A43F48073FC
:10229C001360FFF7B7FB386108E0FFF7B3FB0246AA
:1022AC003B69D31A642B01D9032303E1754B1B68DB
:1022BC0003F48073002BF0D07B68DB68012B06D114
:1022CC006F4B1B6A6E4A43F0010313622DE07B686F
:1022DC00DB68002B0CD16A4B1B6A694A23F00103A3
:1022EC001362674B1B6A664A23F0040313621CE0FB
:1022FC007B68DB68052B0CD1614B1B6A604A43F091
:10230C00040313625E4B1B6A5D4A43F001031362C4
:10231C000BE05B4B1B6A5A4A23F001031362584BC8
:10232C001B6A574A23F0040313627B68DB68002B9B
:10233C0015D0FFF767FB38610AE0FFF763FB024635
:10234C003B69D31A41F28832934201D90323B1E09D
:10235C004B4B1B6A03F00203002BEED014E0FFF78B
:10236C0051FB38610AE0FFF74DFB02463B69D31A7B
:10237C0041F28832934201D903239BE0404B1B6A04
:10238C0003F00203002BEED1FB7D012B05D13C4B5E
:10239C00DB693B4A23F08053D3617B68DB69002BFC
:1023AC0000F08780364B5B6803F00C03082B61D080
:1023BC007B68DB69022B46D1334B00221A60FFF796
:1023CC0021FB386108E0FFF71DFB02463B69D31A7D
:1023DC00022B01D903236DE0294B1B6803F000731A
:1023EC00002BF0D17B681B6AB3F5803F08D1244BDE
:1023FC005B6823F400327B689B68214913434B6074
:10240C001F4B5B6823F474127B68196A7B685B6AE8
:10241C000B431B4913434B601B4B01221A60FFF704
:10242C00F1FA386108E0FFF7EDFA02463B69D31A7E
:10243C00022B01D903233DE0114B1B6803F0007301
:10244C00002BF0D035E0104B00221A60FFF7DAFABF
:10245C00386108E0FFF7D6FA02463B69D31A022B23
:10246C0001D9032326E0064B1B6803F00073002BF5
:10247C00F0D11EE07B68DB69012B07D1012319E049
:10248C000010024000700040600042420B4B5B6841
:10249C00FB60FB6803F480327B681B6A9A4206D1AE
:1024AC00FB6803F470127B685B6A9A4201D00123CB
:1024BC0000E0002318461837BD4680BD00100240CE
:1024CC0080B584B000AF786039607B68002B01D197
:1024DC000123D0E06A4B1B6803F007033A689A4269
:1024EC0010D9674B1B6823F0070265493B681343FF
:1024FC000B60634B1B6803F007033A689A4201D0E8
:10250C000123B8E07B681B6803F00203002B20D08A
:10251C007B681B6803F00403002B05D0594B5B68E8
:10252C00584A43F4E06353607B681B6803F008036C
:10253C00002B05D0534B5B68524A43F460535360F5
:10254C00504B5B6823F0F0027B689B684D4913434A
:10255C004B607B681B6803F00103002B40D07B6849
:10256C005B68012B07D1474B1B6803F40033002B2E
:10257C0015D101237FE07B685B68022B07D1414BAF
:10258C001B6803F00073002B09D1012373E03D4B52
:10259C001B6803F00203002B01D101236BE0394BC4
:1025AC005B6823F003027B685B68364913434B601E
:1025BC00FFF728FAF8600AE0FFF724FA0246FB68F6
:1025CC00D31A41F28832934201D9032353E02D4BA5
:1025DC005B6803F00C027B685B689B009A42EBD152
:1025EC00274B1B6803F007033A689A4210D2244B1E
:1025FC001B6823F0070222493B6813430B60204BF6
:10260C001B6803F007033A689A4201D0012332E0B9
:10261C007B681B6803F00403002B08D0194B5B6824
:10262C0023F4E0627B68DB68164913434B607B68DC
:10263C001B6803F00803002B09D0124B5B6823F4D2
:10264C0060527B681B69DB000E4913434B6000F042
:10265C0021F802460B4B5B681B0903F00F030A4978
:10266C00CB5C22FA03F3094A1360094B1B6818462A
:10267C00FFF786F9002318461037BD4680BD00BF12
:10268C000020024000100240C42F00084C00002023
:10269C005000002080B487B000AF0023FB60002303
:1026AC00BB6000237B6100237B6000233B611E4BDE
:1026BC005B68FB60FB6803F00C03042B02D0082B57
:1026CC0003D027E0194B3B6127E0FB689B0C03F020
:1026DC000F03174AD35C7B60FB6803F48033002B39
:1026EC0010D0114B5B685B0C03F00103114AD35CF7
:1026FC00BB607B680D4A03FB02F2BB68B2FBF3F3D1
:10270C007B6104E07B680C4A02FB03F37B617B6911
:10271C003B6102E0054B3B6100BF3B6918461C372F
:10272C00BD4680BC704700BF0010024000127A000A
:10273C00D42F0008E42F000800093D0080B485B0B8
:10274C0000AF78600A4B1B680A4AA2FB03235B0AA2
:10275C007A6802FB03F3FB6000BFFB685A1EFA6049
:10276C00002BF9D100BF00BF1437BD4680BC7047A9
:10277C004C000020D34D621080B582B000AF786061
:10278C007B68002B01D1012341E07B6893F83D303D
:10279C00DBB2002B06D17B68002283F83C207868E2
:1027AC00FFF756F87B68022283F83D207B681A6895
:1027BC007B6804331946104600F06EFA7B680122E0
:1027CC0083F846207B68012283F83E207B68012237
:1027DC0083F83F207B68012283F840207B6801222C
:1027EC0083F841207B68012283F842207B68012218
:1027FC0083F843207B68012283F844207B68012204
:10280C0083F845207B68012283F83D20002318467D
:10281C000837BD4680BD000080B485B000AF78603D
:10282C007B6893F83D30DBB2012B01D0012335E0FE
:10283C007B68022283F83D207B681B68DA687B6822
:10284C001B6842F00102DA607B681B68164A9342EF
:10285C0009D07B681B68B3F1804F04D07B681B6880
:10286C00124A934211D17B681B689B6803F00703E3
:10287C00FB60FB68062B10D07B681B681A687B68B2
:10288C001B6842F001021A6007E07B681B681A683B
:10289C007B681B6842F001021A600023184614374B
:1028AC00BD4680BC704700BF002C014000040040B6
:1028BC0080B582B000AF78607B681B681B6903F041
:1028CC000203022B22D17B681B68DB6803F0020336
:1028DC00022B1BD17B681B686FF002021A617B68AC
:1028EC0001221A777B681B689B6903F00303002B9A
:1028FC0003D0786800F0B4F905E0786800F0A7F927
:10290C00786800F0B6F97B6800221A777B681B6840
:10291C001B6903F00403042B22D17B681B68DB6862
:10292C0003F00403042B1BD17B681B686FF00402BB
:10293C001A617B6802221A777B681B689B6903F417
:10294C004073002B03D0786800F08AF905E07868B2
:10295C0000F07DF9786800F08CF97B6800221A771A
:10296C007B681B681B6903F00803082B22D17B686A
:10297C001B68DB6803F00803082B1BD17B681B6802
:10298C006FF008021A617B6804221A777B681B6857
:10299C00DB6903F00303002B03D0786800F060F9C7
:1029AC0005E0786800F053F9786800F062F97B680C
:1029BC0000221A777B681B681B6903F01003102B2D
:1029CC0022D17B681B68DB6803F01003102B1BD132
:1029DC007B681B686FF010021A617B6808221A77FB
:1029EC007B681B68DB6903F44073002B03D07868A9
:1029FC0000F036F905E0786800F029F9786800F005
:102A0C0038F97B6800221A777B681B681B6903F016
:102A1C000103012B0ED17B681B68DB6803F00103FB
:102A2C00012B07D17B681B686FF001021A61786873
:102A3C00FEF782FE7B681B681B6903F08003802B0A
:102A4C000ED17B681B68DB6803F08003802B07D1F9
:102A5C007B681B686FF080021A61786800F06BFA73
:102A6C007B681B681B6903F04003402B0ED17B680D
:102A7C001B68DB6803F04003402B07D17B681B68A5
:102A8C006FF040021A61786800F0FCF87B681B68F4
:102A9C001B6903F02003202B0ED17B681B68DB68BD
:102AAC0003F02003202B07D17B681B686FF02002FA
:102ABC001A61786800F036FA00BF0837BD4680BD51
:102ACC0080B584B000AF786039600023FB737B68FD
:102ADC0093F83C30012B01D10223B4E07B68012236
:102AEC0083F83C207B68022283F83D207B681B68BE
:102AFC009B68BB60BB6823F07703BB60BB6823F4A7
:102B0C007F43BB607B681B68BA689A603B681B6834
:102B1C00B3F5005F3ED0B3F5005F00F28780B3F5EC
:102B2C00805F00F08680B3F5805F7FD8702B1AD061
:102B3C00702B7BD8602B50D0602B77D8502B3CD08F
:102B4C00502B73D8402B58D0402B6FD8302B64D0DF
:102B5C00302B6BD8202B60D0202B67D8002B5CD06F
:102B6C00102B5AD062E07B6818683B6899683B6808
:102B7C005A683B68DB6800F05EF97B681B689B68F1
:102B8C00BB60BB6843F07703BB607B681B68BA68AB
:102B9C009A604FE07B6818683B6899683B685A6894
:102BAC003B68DB6800F047F97B681B689A687B68B8
:102BBC001B6842F480429A603CE07B6818683B6872
:102BCC0059683B68DB681A4600F0BEF87B681B68E6
:102BDC005021184600F015F92CE07B6818683B680A
:102BEC0059683B68DB681A4600F0DCF87B681B68A8
:102BFC006021184600F005F91CE07B6818683B68FA
:102C0C0059683B68DB681A4600F09EF87B681B68C5
:102C1C004021184600F0F5F80CE07B681A683B6818
:102C2C001B681946104600F0ECF803E00123FB7317
:102C3C0000E000BF7B68012283F83D207B68002206
:102C4C0083F83C20FB7B18461037BD4680BD80B412
:102C5C0083B000AF786000BF0C37BD4680BC7047B6
:102C6C0080B483B000AF786000BF0C37BD4680BC29
:102C7C00704780B483B000AF786000BF0C37BD469E
:102C8C0080BC704780B483B000AF786000BF0C3755
:102C9C00BD4680BC7047000080B485B000AF786042
:102CAC0039607B681B68FB607B68254A934207D0C0
:102CBC007B68B3F1804F03D07B68224A934208D1E2
:102CCC00FB6823F07003FB603B685B68FA68134396
:102CDC00FB607B681A4A934207D07B68B3F1804F44
:102CEC0003D07B68174A934208D1FB6823F44073E6
:102CFC00FB603B68DB68FA681343FB60FB6823F0FE
:102D0C0080023B685B691343FB607B68FA681A605E
:102D1C003B689A687B68DA623B681A687B689A62DF
:102D2C007B68074A934203D13B681A697B681A6334
:102D3C007B6801225A6100BF1437BD4680BC7047C6
:102D4C00002C01400004004080B487B000AFF86054
:102D5C00B9607A60FB681B6A7B61FB681B6A23F0B5
:102D6C000102FB681A62FB689B693B613B6923F0BB
:102D7C00F0033B617B681B013A6913433B617B6940
:102D8C0023F00A037B617A69BB6813437B61FB68A0
:102D9C003A699A61FB687A691A6200BF1C37BD46B2
:102DAC0080BC704780B487B000AFF860B9607A60BF
:102DBC00FB681B6A7B61FB681B6A23F01002FB68D3
:102DCC001A62FB689B693B613B6923F470433B616E
:102DDC007B681B033A6913433B617B6923F0A003B7
:102DEC007B61BB681B017A6913437B61FB683A69A1
:102DFC009A61FB687A691A6200BF1C37BD4680BCB9
:102E0C00704780B485B000AF786039607B689B6890
:102E1C00FB60FB6823F07003FB603A68FB681343AC
:102E2C0043F00703FB607B68FA689A6000BF1437B5
:102E3C00BD4680BC704780B487B000AFF860B96005
:102E4C007A603B60FB689B687B617B6923F47F4302
:102E5C007B613B681A027B681A43BB6813437A692F
:102E6C0013437B61FB687A699A6000BF1C37BD46CF
:102E7C0080BC704780B485B000AF786039607B68E7
:102E8C0093F83C30012B01D1022341E07B680122F5
:102E9C0083F83C207B68022283F83D207B681B680A
:102EAC005B68FB607B681B689B68BB60FB6823F0FE
:102EBC007003FB603B681B68FA681343FB607B681C
:102ECC001B68FA685A607B681B68144A934209D0E5
:102EDC007B681B68B3F1804F04D07B681B68104A79
:102EEC0093420CD1BB6823F08003BB603B685B68EA
:102EFC00BA681343BB607B681B68BA689A607B68CE
:102F0C00012283F83D207B68002283F83C200023BB
:102F1C0018461437BD4680BC704700BF002C0140DA
:102F2C000004004080B483B000AF786000BF0C3761
:102F3C00BD4680BC704780B483B000AF786000BFE2
:102F4C000C37BD4680BC704703460244934200D107
:102F5C00704703F8011BF9E770B500260C4D0D4CBA
:102F6C00641BA410A64209D100F01AF800260A4DE1
:102F7C000A4C641BA410A64205D170BD55F8043B45
:102F8C0098470136EEE755F8043B98470136F2E7CF
:102F9C00E82F0008E82F0008E82F0008EC2F0008A5
:102FAC00F8B500BFF8BC08BC9E467047F8B500BF2A
:082FBC00F8BC08BC9E467047FA
:102FC40000000000000000000102030406070809D5
:102FD40002030405060708090A0B0C0D0E0F101056
:042FE40001020000E6
:042FE80031010008AB
:042FEC000D010008CB
:102FF00000200000004000000080000001000000F0
:1030000001000000010000000100000001000000BC
:1030100001000000010000000100000001000000AC
:10302000010000000100000001000000F4010000A8
:103030000500000003000000020000000024F4006E
:08304000100000000100000077
:0400000508001915C1
:00000001FF
