:020000040800F2
:100000000028002091160008211600082716000875
:100010002D160008331600083916000800000000ED
:100020000000000000000000000000003F16000873
:100030004B16000800000000571600086316000861
:10004000D9160008D9160008D9160008D9160008D4
:10005000D9160008D9160008D9160008D9160008C4
:10006000D9160008D9160008D9160008D9160008B4
:10007000D9160008D9160008D9160008D9160008A4
:10008000D9160008D9160008D9160008D916000894
:10009000D9160008D9160008D9160008D916000884
:1000A000D9160008D9160008D9160008D916000874
:1000B00071160008D916000800000000D9160008C3
:1000C000D91600080000000000000000D916000842
:1000D00000000000D9160008D91600080000000032
:1000E000D9160008D9160008D9160008000000002B
:1000F0000000000000000000000000000000000000
:0C01000000000000000000005FF808F1A3
:10010C0010B5054C237833B9044B13B10448AFF345
:10011C0000800123237010BD180000200000000097
:10012C00FC2C000808B5034B1BB103490348AFF383
:10013C00008008BD000000001C000020FC2C000802
:10014C0080B483B000AF7860094A7B6852F82330E2
:10015C00012B06D1064A7B68002142F823100123AB
:10016C0000E0002318460C37BD4680BC704700BF2A
:10017C003400002080B582B000AF0346FB71FB79E0
:10018C00032B4BD801A252F823F000BFA9010008A1
:10019C00C901000809020008E90100080122082130
:1001AC00214801F081FD012204211F4801F07CFD52
:1001BC00012202211C4801F077FD30E001220821C8
:1001CC00194801F071FD01220421174801F06CFD62
:1001DC0000220221144801F067FD20E001220821D1
:1001EC00114801F061FD002204210F4801F05CFD73
:1001FC00012202210C4801F057FD10E000220821D9
:10020C00094801F051FD01220421074801F04CFD81
:10021C0001220221044801F047FD00E000BF00BFAD
:10022C000837BD4680BD00BF0008014080B582B0D4
:10023C0000AF0346FB71FB79032B4BD801A252F89C
:10024C0023F000BF6102000881020008C10200080F
:10025C00A102000801224021214801F025FD0122C4
:10026C0020211F4801F020FD012210211C4801F023
:10027C001BFD30E001224021194801F015FD01223F
:10028C002021174801F010FD00221021144801F024
:10029C000BFD20E001224021114801F005FD002258
:1002AC0020210F4801F000FD012210210C4801F023
:1002BC00FBFC10E000224021094801F0F5FC012272
:1002CC002021074801F0F0FC01221021044801F024
:1002DC00EBFC00E000BF00BF0837BD4680BD00BF8F
:1002EC000008014080B582B000AF0346FB71FB797A
:1002FC00032B0ED0032B1EDC012B13D0022B1AD197
:10030C0008210F4801F0E8FC40210D4801F0E4FC05
:10031C0012E004210A4801F0DFFC2021084801F01A
:10032C00DBFC09E00221064801F0D6FC1021044850
:10033C0001F0D2FC00E000BF00BF0837BD4680BD15
:10034C000008014080B582B000AF78607B68092B53
:10035C0000F2808101A252F823F000BF9103000843
:10036C00D90300082104000869040008B10400083E
:10037C00F90400084105000889050008D1050008AA
:10038C001906000800220121B54801F08DFC00225D
:10039C000221B34801F088FC00220421B04801F08E
:1003AC0083FC00220821AE4801F07EFC00221021C3
:1003BC00AB4801F079FC00222021A94801F074FC23
:1003CC0001224021A64801F06FFC44E101220121E9
:1003DC00A34801F069FC00220221A14801F064FC51
:1003EC00002204219E4801F05FFC012208219C4858
:1003FC0001F05AFC01221021994801F055FC012210
:10040C002021974801F050FC01224021944801F032
:10041C004BFC20E100220121914801F045FC002217
:10042C0002218F4801F040FC012204218C4801F08C
:10043C003BFC002208218A4801F036FC00221021E6
:10044C00874801F031FC01222021854801F02CFC69
:10045C0000224021824801F027FCFCE0002201210F
:10046C007F4801F021FC002202217D4801F01CFC98
:10047C00002204217A4801F017FC00220821784858
:10048C0001F012FC01221021754801F00DFC012233
:10049C002021734801F008FC00224021704801F033
:1004AC0003FCD8E0012201216D4801F0FDFB002284
:1004BC0002216B4801F0F8FB00220421684801F08E
:1004CC00F3FB01220821664801F0EEFB012210210A
:1004DC00634801F0E9FB00222021614801F0E4FBB4
:1004EC00002240215E4801F0DFFBB4E00022012134
:1004FC005B4801F0D9FB01220221594801F0D4FBE1
:10050C0000220421564801F0CFFB00220821544858
:10051C0001F0CAFB01221021514801F0C5FB002259
:10052C0020214F4801F0C0FB002240214C4801F033
:10053C00BBFB90E000220121494801F0B5FB0122F0
:10054C000221474801F0B0FB00220421444801F08D
:10055C00ABFB00220821424801F0A6FB002210212F
:10056C003F4801F0A1FB002220213D4801F09CFBFB
:10057C00002240213A4801F097FB6CE00022012157
:10058C00374801F091FB00220221354801F08CFB29
:10059C0000220421324801F087FB01220821304857
:1005AC0001F082FB012210212D4801F07DFB01227C
:1005BC0020212B4801F078FB01224021284801F032
:1005CC0073FB48E000220121254801F06DFB00225D
:1005DC000221234801F068FB00220421204801F08D
:1005EC0063FB002208211E4801F05EFB0022102153
:1005FC001B4801F059FB00222021194801F054FB43
:10060C0000224021164801F04FFB24E0002201217A
:10061C00134801F049FB00220221114801F044FB70
:10062C00002204210E4801F03FFB002208210C4857
:10063C0001F03AFB01221021094801F035FB0022A0
:10064C002021074801F030FB00224021044801F032
:10065C002BFB00E000BF00BF0837BD4680BD00BFCC
:10066C00000C014080B582B000AF78607B68092B2C
:10067C0000F2BC8101A252F823F000BFB1060008C1
:10068C000507000859070008AD0700080108000815
:10069C0055080008A9080008FD08000851090008C1
:1006AC00A509000800228021D34801F0FDFA0022A0
:1006BC004FF48071D04801F0F7FA00224FF400712A
:1006CC00CD4801F0F1FA00224FF48061CA4801F0E4
:1006DC00EBFA00224FF40061C74801F0E5FA002262
:1006EC004FF48051C44801F0DFFA01224FF400515D
:1006FC00C14801F0D9FA7AE101228021BE4801F00B
:10070C00D3FA00224FF48071BB4801F0CDFA0022DD
:10071C004FF40071B84801F0C7FA01224FF4806120
:10072C00B54801F0C1FA01224FF40061B24801F062
:10073C00BBFA01224FF48051AF4801F0B5FA012207
:10074C004FF40051AC4801F0AFFA50E10022802187
:10075C00A94801F0A9FA00224FF48071A64801F0D3
:10076C00A3FA01224FF40071A34801F09DFA002274
:10077C004FF48061A04801F097FA00224FF4006119
:10078C009D4801F091FA01224FF480519A4801F0F2
:10079C008BFA00224FF40051974801F085FA26E1BC
:1007AC0000228021944801F07FFA00224FF48071DE
:1007BC00914801F079FA00224FF400718E4801F053
:1007CC0073FA00224FF480618B4801F06DFA01221C
:1007DC004FF40061884801F067FA01224FF4805110
:1007EC00854801F061FA00224FF40051824801F073
:1007FC005BFAFCE0012280217F4801F055FA0022CF
:10080C004FF480717C4801F04FFA00224FF40071D4
:10081C00794801F049FA01224FF48061764801F0E1
:10082C0043FA01224FF40061734801F03DFA0022B3
:10083C004FF48051704801F037FA00224FF4005108
:10084C006D4801F031FAD2E0002280216A4801F0B3
:10085C002BFA01224FF48071674801F025FA00222F
:10086C004FF40071644801F01FFA00224FF48061CC
:10087C00614801F019FA01224FF400615E4801F061
:10088C0013FA00224FF480515B4801F00DFA00225C
:10089C004FF40051584801F007FAA8E000228021DB
:1008AC00554801F001FA01224FF48071524801F0D1
:1008BC00FBF900224FF400714F4801F0F5F90022CA
:1008CC004FF480614C4801F0EFF900224FF40061C5
:1008DC00494801F0E9F900224FF48051464801F0F3
:1008EC00E3F900224FF40051434801F0DDF97EE0BA
:1008FC0000228021404801F0D7F900224FF480718A
:10090C003D4801F0D1F900224FF400713A4801F052
:10091C00CBF901224FF48061374801F0C5F901226F
:10092C004FF40061344801F0BFF901224FF48051BB
:10093C00314801F0B9F901224FF400512E4801F071
:10094C00B3F954E0002280212B4801F0ADF90022CC
:10095C004FF48071284801F0A7F900224FF4007180
:10096C00254801F0A1F900224FF48061224801F0E2
:10097C009BF900224FF400611F4801F095F9002209
:10098C004FF480511C4801F08FF900224FF40051B4
:10099C00194801F089F92AE000228021164801F05B
:1009AC0083F900224FF48071134801F07DF9002285
:1009BC004FF40071104801F077F900224FF4806178
:1009CC000D4801F071F901224FF400610A4801F061
:1009DC006BF900224FF48051074801F065F90022B1
:1009EC004FF40051044801F05FF900E000BF00BF74
:1009FC000837BD4680BD00BF000C014080B500AF7C
:100A0C0000228021054801F04FF901224FF480713A
:100A1C00024801F049F900BF80BD00BF0008014049
:100A2C0080B500AF01228021054801F03DF900227C
:100A3C004FF48071024801F037F900BF80BD00BF50
:100A4C000008014080B500AF00224FF4007105484A
:100A5C0001F02AF901224FF48061024801F024F9D7
:100A6C0000BF80BD0008014080B500AF01224FF4EB
:100A7C000071054801F018F900224FF4806102481A
:100A8C0001F012F900BF80BD0008014080B582B0B2
:100A9C0000AF78603960FFF7B1FF7B680C4A82FBCE
:100AAC0003129210DB17D31A1846FFF74BFCFFF713
:100ABC00C9FF3B68064A82FB03129210DB17D31A5C
:100ACC001846FFF7CFFD00BF0837BD4680BD00BFFD
:100ADC006766666680B582B000AF78603960FFF7F4
:100AEC009FFF7A68114B83FB02139910D317C91A15
:100AFC000B469B000B445B00D11A0846FFF722FC07
:100B0C00FFF7B2FF3A68094B83FB02139910D31716
:100B1C00C91A0B469B000B445B00D11A0846FFF721
:100B2C00A1FD00BF0837BD4680BD00BF6766666685
:100B3C0080B500AF994B1B78012B40F02D81984B61
:100B4C001B78032B66D801A252F823F0690B00081E
:100B5C00790B0008B10B0008E90B0008904B01223F
:100B6C001A706421002000F0CFFC5AE00120FFF73E
:100B7C0001FB8C4B1B68012B4ED18B4B1B68013B33
:100B8C00894A1360884B1B68002B06D1874B1B6866
:100B9C00854A1360824B02221A706421002000F0F7
:100BAC00B3FC39E00220FFF7E5FA7E4B1B68012B02
:100BBC0034D17D4B1B68013B7B4A13607A4B1B681D
:100BCC00002B06D17A4B1B68774A1360744B0322B7
:100BDC001A706421002000F097FC1FE00320FFF73F
:100BEC00C9FA704B1B68012B1AD16F4B1B68013B68
:100BFC006D4A13606C4B1B68002B06D16D4B1B6848
:100C0C00694A1360664B01221A706421002000F0BF
:100C1C007BFC05E000BF04E000BF02E000BF00E089
:100C2C0000BF654B1B78032B66D801A252F823F04A
:100C3C004D0C00085D0C0008950C0008CD0C00084C
:100C4C005D4B02221A706421012000F05DFC5AE019
:100C5C000120FFF7EBFA534B5B68012B4ED1574B3E
:100C6C001B68013B554A1360544B1B68002B06D183
:100C7C004E4B1B68514A13604F4B02221A70642171
:100C8C00012000F041FC39E00220FFF7CFFA454B80
:100C9C005B68012B34D1494B1B68013B474A1360FD
:100CAC00464B1B68002B06D1414B1B68434A136013
:100CBC00414B03221A706421012000F025FC1FE037
:100CCC000320FFF7B3FA374B5B68012B1AD13B4B70
:100CDC001B68013B394A1360384B1B68002B06D14B
:100CEC00344B1B68354A1360334B01221A70642154
:100CFC00012000F009FC05E000BF04E000BF02E0A9
:100D0C0000BF00E000BF2E4B1B78022B22D0022B21
:100D1C0034DC002B02D0012B08D02FE0284B012211
:100D2C001A700121022000F0EFFB2CE01D4B9B6898
:100D3C00012B25D11C4B1B68204A12681146184602
:100D4C00FFF7A4FE1E4B02221A703221022000F083
:100D5C00DBFB15E0134B9B68012B13D1124B1B686B
:100D6C00164A126811461846FFF7B4FE144B0122BE
:100D7C001A703221022000F0C7FB03E000BF02E032
:100D8C0000BF00E000BF0020FFF7DAF90346012B9B
:100D9C0002D1024B02221A7000BF80BD400000201D
:100DAC004A000020C8000020500000200400002051
:100DBC0008000020000000204B0000205400002000
:100DCC004C00002080B500AF474B1B78002B02D0A5
:100DDC00012B08D013E0444B01221A701921032077
:100DEC0000F092FB0BE0414BDB68012B06D101209C
:100DFC00FFF778FA1921032000F086FB00BF3C4B6B
:100E0C001B78002B02D0012B0FD02FE00120FFF715
:100E1C0097F90346012B26D1354B01221A70354B1D
:100E2C001B680133334A13601DE00120FFF788F97A
:100E3C000346012B0BD12F4B1B6801332D4A13603A
:100E4C002C4B1B68622B02DD2A4B01221A600220FC
:100E5C00FFF776F90346012B07D1274B01221A70B5
:100E6C0000F0C8F901E000BF00E000BF234B1B7885
:100E7C00022B20D0022B30DC002B02D0012B08D00F
:100E8C002BE01E4B01221A701921042000F03CFBB0
:100E9C0028E0164B1B69012B21D1164B1B681946F8
:100EAC000120FFF7F3FD154B02221A7019210420C3
:100EBC0000F02AFB13E00D4B1B69012B11D10D4BDC
:100ECC001B6819460120FFF705FE1921042000F0CC
:100EDC001BFB0A4B01221A7003E000BF02E000BFAB
:100EEC0000E000BF00BF80BD41000020C800002012
:100EFC0043000020000000204000002042000020A1
:100F0C0080B500AF474B1B78002B02D0012B08D0CB
:100F1C0013E0444B01221A701921052000F0F4FA59
:100F2C000BE0414B5B69012B06D10320FFF7DAF98B
:100F3C001921052000F0E8FA00BF3C4B1B78002B70
:100F4C0002D0012B0FD02FE00120FFF7F9F8034658
:100F5C00012B26D1354B01221A70354B1B680133FE
:100F6C00334A13601DE00120FFF7EAF80346012B1A
:100F7C000BD12F4B1B6801332D4A13602C4B1B6874
:100F8C00622B02DD2A4B01221A600220FFF7D8F8EF
:100F9C000346012B07D1274B01221A7000F02AF9C6
:100FAC0001E000BF00E000BF234B1B78022B20D0D8
:100FBC00022B30DC002B02D0012B08D02BE01E4B77
:100FCC0001221A701921062000F09EFA28E0164B17
:100FDC009B69012B21D1164B1B6819460120FFF789
:100FEC0055FD154B02221A701921062000F08CFABF
:100FFC0013E00D4B9B69012B11D10D4B1B6819464E
:10100C000120FFF767FD1921062000F07DFA0A4B3D
:10101C0001221A7003E000BF02E000BF00E000BF35
:10102C0000BF80BD44000020C80000204600002006
:10103C0008000020400000204500002080B500AFD3
:10104C00474B1B78002B02D0012B08D013E0444BEC
:10105C0001221A701921072000F056FA0BE0414BBF
:10106C00DB69012B06D10220FFF73CF9192107207F
:10107C0000F04AFA00BF3C4B1B78002B02D0012B2E
:10108C000FD02FE00120FFF75BF80346012B26D190
:10109C00354B01221A70354B1B680133334A1360F0
:1010AC001DE00120FFF74CF80346012B0BD12F4B11
:1010BC001B6801332D4A13602C4B1B68622B02DD1D
:1010CC002A4B01221A600220FFF73AF80346012B43
:1010DC0007D1274B01221A7000F08CF801E000BFF9
:1010EC0000E000BF234B1B78022B20D0022B30DCFE
:1010FC00002B02D0012B08D02BE01E4B01221A70C2
:10110C001921082000F000FA28E0164B1B6A012B6D
:10111C0021D1164B1B6819460120FFF7B7FC154B64
:10112C0002221A701921082000F0EEF913E00D4B81
:10113C001B6A012B11D10D4B1B6819460120FFF7BF
:10114C00C9FC1921082000F0DFF90A4B01221A70A2
:10115C0003E000BF02E000BF00E000BF00BF80BDA5
:10116C0047000020C8000020490000200400002097
:10117C00400000204800002080B500AF1C4B1B78BD
:10118C00042B1ED0042B2ADC022B02D0032B0CD0F8
:10119C0025E0FFF717FE0020FEF7D2FF0346012BD8
:1011AC001FD1134B03221A701BE0FFF7A9FE00207E
:1011BC00FEF7C6FF0346012B15D10D4B04221A7006
:1011CC0011E0FFF73BFF0020FEF7BAFF0346012BAF
:1011DC000BD1074B01221A7000F00CF805E000BF90
:1011EC0004E000BF02E000BF00E000BF00BF80BD14
:1011FC004000002080B400AF194B01221A70194B2B
:10120C0000221A70184B00221A70184B00221A7008
:10121C00174B00221A70174B00221A70164B002223
:10122C001A70164B00221A70154B00221A70154BAF
:10123C0000221A70144B00221A70144B00221A70E0
:10124C00134B00221A70134B1B68134A1360134B79
:10125C001B68134A136000BFBD4680BC704700BFBB
:10126C0040000020410000204200002043000020EC
:10127C0044000020450000204600002047000020CC
:10128C0048000020490000204A0000204B000020AC
:10129C004C00002000000020500000200400002022
:1012AC005400002080B500AF00F012FA00F014F8E2
:1012BC0000F09AF800F04CF8064801F055F9FFF7E9
:1012CC0099FF0020FEF756FFFFF732FCFFF754FFA3
:1012DC00FAE700BF5800002080B590B000AF07F1CE
:1012EC00180328220021184601F0D6FC3B1D0022D1
:1012FC001A605A609A60DA601A610223BB6101239A
:10130C00BB621023FB6200237B6307F118031846B2
:10131C0000F0FCFC0346002B01D000F0F0F80F238A
:10132C007B600023BB600023FB6000233B61002338
:10133C007B613B1D0021184600F06AFF0346002B21
:10134C0001D000F0DCF800BF4037BD4680BD000086
:10135C0080B586B000AF07F1080300221A605A600E
:10136C009A60DA603B4600221A605A601D4B4FF0BF
:10137C0080421A601B4B41F63F725A60194B002297
:10138C009A60184B0A22DA60164B00221A61154B30
:10139C0000229A61134801F097F80346002B01D004
:1013AC0000F0ADF84FF48053BB6007F10803194609
:1013BC000C4801F02DFA0346002B01D000F09FF8E9
:1013CC0000233B6000237B603B461946054801F037
:1013DC00F9FB0346002B01D000F091F800BF183741
:1013EC00BD4680BD5800002080B586B000AF07F127
:1013FC00080300221A605A609A60DA602B4B9B69D2
:10140C002A4A43F004039361284B9B6903F00403BD
:10141C007B607B68254B9B69244A43F008039361EE
:10142C00224B9B6903F008033B603B6800227E2142
:10143C001F4800F039FC01224FF4FC511C4800F00D
:10144C0033FC002243F6FF711A4800F02DFC41F6E4
:10145C00FE73BB600123FB6000233B6102237B61B5
:10146C0007F108031946124800F0A2FA43F6FF737D
:10147C00BB600123FB6000233B6102237B6107F10E
:10148C00080319460B4800F093FA4FF46043BB6015
:10149C000023FB6001233B6107F108031946044854
:1014AC0000F086FA00BF1837BD4680BD0010024020
:1014BC0000080140000C014080B582B000AF78609C
:1014CC00002000F039F8012000F036F8022000F07E
:1014DC0033F8032000F030F8042000F02DF805203C
:1014EC0000F02AF8062000F027F8072000F024F876
:1014FC00082000F021F800BF0837BD4680BD80B43D
:10150C0000AF72B600BFFEE780B483B000AF786066
:10151C00396007497B683A6841F82320054A7B68A3
:10152C00002142F8231000BF0C37BD4680BC704729
:10153C00A0000020C800002080B483B000AF786009
:10154C000F4A7B6852F82330002B13DD0C4A7B6862
:10155C0052F823305A1E0A497B6841F82320084A66
:10156C007B6852F82330002B04DC064A7B6801218F
:10157C0042F8231000BF0C37BD4680BC704700BF3B
:10158C00A0000020C800002080B483B000AF0E4B38
:10159C009B690D4A43F0010393610B4B9B6903F06C
:1015AC0001037B607B68084BDB69074A43F080537F
:1015BC00D361054BDB6903F080533B603B6800BF94
:1015CC000C37BD4680BC70470010024080B584B01B
:1015DC0000AF78607B681B68B3F1804F13D10C4B64
:1015EC00DB690B4A43F00103D361094BDB6903F060
:1015FC000103FB60FB68002200211C2000F0A1F914
:10160C001C2000F0BAF900BF1037BD4680BD00BFEA
:10161C000010024080B400AFFEE780B400AFFEE7DC
:10162C0080B400AFFEE780B400AFFEE780B400AF3B
:10163C00FEE780B400AF00BFBD4680BC704780B4ED
:10164C0000AF00BFBD4680BC704780B400AF00BF88
:10165C00BD4680BC704780B500AF00F07FF800BF7E
:10166C0080BD000080B500AF024800F0C9FF00BF8C
:10167C0080BD00BF5800002080B400AF00BFBD4645
:10168C0080BC7047FFF7F8FF0B480C490C4A00234D
:10169C0002E0D458C4500433C4188C42F9D3094A1C
:1016AC00094C002301E013600432A242FBD301F089
:1016BC00FBFAFFF7F7FD7047000000201800002030
:1016CC00402D000818000020F4000020FEE7000068
:1016DC0080B500AF084B1B68074A43F0100313603A
:1016EC00032000F023F90F2000F008F8FFF74CFF5F
:1016FC000023184680BD00BF0020024080B582B098
:10170C0000AF7860124B1A68124B1B7819464FF4D5
:10171C007A73B3FBF1F3B2FBF3F3184600F03BF929
:10172C000346002B01D001230EE07B680F2B0AD857
:10173C00002279684FF0FF3000F003F9064A7B680D
:10174C001360002300E0012318460837BD4680BD16
:10175C000C000020140000201000002080B400AF0A
:10176C00054B1B781A46054B1B681344034A136040
:10177C0000BFBD4680BC704714000020F000002064
:10178C0080B400AF024B1B681846BD4680BC704746
:10179C00F000002080B485B000AF78607B6803F067
:1017AC000703FB600C4BDB68BB60BA684FF6FF03AA
:1017BC001340BB60FB681A02BB68134343F0BF6362
:1017CC0043F40033BB60044ABB68D36000BF1437DA
:1017DC00BD4680BC704700BF00ED00E080B400AF98
:1017EC00044BDB681B0A03F007031846BD4680BC9C
:1017FC00704700BF00ED00E080B483B000AF03463B
:10180C00FB7197F90730002B0BDBFB7903F01F0200
:10181C00064997F907305B09012000FA02F241F8FA
:10182C00232000BF0C37BD4680BC704700E100E0B0
:10183C0080B483B000AF03463960FB7197F9073071
:10184C00002B0ADB3B68DAB20C4997F9073012011E
:10185C00D2B20B4483F800230AE03B68DAB20849A1
:10186C00FB7903F00F03043B1201D2B20B441A763E
:10187C0000BF0C37BD4680BC704700BF00E100E0E4
:10188C0000ED00E080B489B000AFF860B9607A6018
:10189C00FB6803F00703FB61FB69C3F10703042B2F
:1018AC0028BF0423BB61FB690433062B02D9FB69F7
:1018BC00033B00E000237B614FF0FF32BB6902FA6F
:1018CC0003F3DA43BB681A407B699A404FF0FF314F
:1018DC007B6901FA03F3D9437B680B401343184629
:1018EC002437BD4680BC704780B582B000AF7860AD
:1018FC007B68013BB3F1807F01D301230FE00A4ADF
:10190C007B68013B53600F214FF0FF30FFF790FFD6
:10191C00054B00229A60044B07221A6000231846DC
:10192C000837BD4680BD00BF10E000E080B582B036
:10193C0000AF78607868FFF72DFF00BF0837BD4611
:10194C0080BD80B586B000AF0346B9607A60FB738A
:10195C0000237B61FFF742FF78617A68B968786988
:10196C00FFF790FF024697F90F3011461846FFF724
:10197C005FFF00BF1837BD4680BD80B582B000AF99
:10198C000346FB7197F907301846FFF735FF00BF88
:10199C000837BD4680BD80B582B000AF78607868EE
:1019AC00FFF7A2FF034618460837BD4680BD00006E
:1019BC0080B48BB000AF7860396000237B62002369
:1019CC003B6261E101227B6A02FA03F3FB613B6833
:1019DC001B68FA691340BB61BA69FB699A4240F013
:1019EC0050813B685B68974A93425ED0954A93421C
:1019FC0075D8954A934258D0934A93426FD8934ADC
:101A0C00934252D0914A934269D8914A93424CD016
:101A1C008F4A934263D88F4A934246D08D4A934261
:101A2C005DD8122B2AD8122B59D801A252F823F0C8
:101A3C00B71A0008911A0008A31A0008E51A000842
:101A4C00EB1A0008EB1A0008EB1A0008EB1A000856
:101A5C00EB1A0008EB1A0008EB1A0008EB1A000846
:101A6C00EB1A0008EB1A0008EB1A0008EB1A000836
:101A7C00EB1A0008991A0008AD1A0008764A93422E
:101A8C0013D02CE03B68DB683B6229E03B68DB68E9
:101A9C0004333B6224E03B68DB6808333B621FE0A5
:101AAC003B68DB680C333B621AE03B689B68002B9D
:101ABC0002D104233B6213E03B689B68012B05D1E8
:101ACC0008233B627B68FA691A6109E008233B62D0
:101ADC007B68FA695A6103E000233B6200E000BFB7
:101AEC00BB69FF2B01D87B6801E07B6804337B6109
:101AFC00BB69FF2B02D87B6A9B0002E07B6A083B28
:101B0C009B003B617B691A680F213B6901FA03F367
:101B1C00DB431A40396A3B6901FA03F31A437B69C8
:101B2C001A603B685B6803F08053002B00F0A980BF
:101B3C004A4B9B69494A43F001039361474B9B69AC
:101B4C0003F00103BB60BB68454A7B6A9B08023308
:101B5C0052F82330FB607B6A03F003039B000F22D7
:101B6C0002FA03F3DB43FA681340FB607B683D4ADF
:101B7C0093420DD07B683C4A934207D07B683B4A2A
:101B8C00934201D1022304E0032302E0012300E08D
:101B9C0000237A6A02F0030292009340FA6813431E
:101BAC00FB602F497B6A9B080233FA6841F82320BB
:101BBC003B685B6803F48013002B06D02C4B9A68AF
:101BCC002B49BB6913438B6006E0294B9A68BB69B0
:101BDC00DB43274913408B603B685B6803F40013BD
:101BEC00002B06D0224BDA682149BB691343CB602A
:101BFC0006E01F4BDA68BB69DB431D491340CB6021
:101C0C003B685B6803F40033002B06D0184B5A6812
:101C1C001749BB6913434B6006E0154B5A68BB6907
:101C2C00DB43134913404B603B685B6803F4803320
:101C3C00002B1FD00E4B1A680D49BB6913430B6068
:101C4C001FE000BF00003210000031100000221015
:101C5C0000002110000012100000111000100240B2
:101C6C000000014000080140000C01400010014040
:101C7C00000401400B4B1A68BB69DB430949134054
:101C8C000B607B6A01337B623B681A687B6A22FAC1
:101C9C0003F3002B7FF496AE00BF00BF2C37BD467C
:101CAC0080BC70470004014080B483B000AF786002
:101CBC000B467B8013467B707B78002B03D07A8895
:101CCC007B681A6103E07B881A047B681A6100BF89
:101CDC000C37BD4680BC704780B485B000AF7860CF
:101CEC000B467B807B68DB68FB607A88FB68134063
:101CFC001A04FB68D9437B880B401A437B681A6132
:101D0C0000BF1437BD4680BC7047000080B586B05C
:101D1C0000AF78607B68002B01D1012372E27B68F5
:101D2C001B6803F00103002B00F08780924B5B686B
:101D3C0003F00C03042B0CD08F4B5B6803F00C03EB
:101D4C00082B12D18C4B5B6803F48033B3F5803FC6
:101D5C000BD1894B1B6803F40033002B6CD07B68D0
:101D6C005B68002B68D101234CE27B685B68B3F5A0
:101D7C00803F06D1804B1B687F4A43F4803313604D
:101D8C002EE07B685B68002B0CD17B4B1B687A4A7E
:101D9C0023F480331360784B1B68774A23F4802339
:101DAC0013601DE07B685B68B3F5A02F0CD1724B00
:101DBC001B68714A43F4802313606F4B1B686E4A97
:101DCC0043F4803313600BE06B4B1B686A4A23F4BB
:101DDC0080331360684B1B68674A23F480231360BD
:101DEC007B685B68002B13D0FFF7CAFC386108E0F6
:101DFC00FFF7C6FC02463B69D31A642B01D90323B7
:101E0C0000E25D4B1B6803F40033002BF0D014E0B0
:101E1C00FFF7B6FC386108E0FFF7B2FC02463B69FD
:101E2C00D31A642B01D90323ECE1534B1B6803F445
:101E3C000033002BF0D100E000BF7B681B6803F07F
:101E4C000203002B63D04C4B5B6803F00C03002B9C
:101E5C000BD0494B5B6803F00C03082B1CD1464B91
:101E6C005B6803F48033002B16D1434B1B6803F0E3
:101E7C000203002B05D07B681B69012B01D00123C9
:101E8C00C0E13D4B1B6823F0F8027B685B69DB000B
:101E9C00394913430B603AE07B681B69002B20D057
:101EAC00364B01221A60FFF76BFC386108E0FFF734
:101EBC0067FC02463B69D31A022B01D90323A1E12B
:101ECC002D4B1B6803F00203002BF0D02A4B1B6830
:101EDC0023F0F8027B685B69DB00274913430B6036
:101EEC0015E0264B00221A60FFF74AFC386108E027
:101EFC00FFF746FC02463B69D31A022B01D9032398
:101F0C0080E11D4B1B6803F00203002BF0D17B68B2
:101F1C001B6803F00803002B3AD07B689B69002BED
:101F2C0019D0174B01221A60FFF72AFC386108E020
:101F3C00FFF726FC02463B69D31A022B01D9032377
:101F4C0060E10D4B5B6A03F00203002BF0D0012023
:101F5C0000F09CFA1CE00A4B00221A60FFF710FC00
:101F6C0038610FE0FFF70CFC02463B69D31A022BD9
:101F7C0008D9032346E100BF001002400000424292
:101F8C0080044242924B5B6A03F00203002BE9D1BE
:101F9C007B681B6803F00403002B00F0A680002371
:101FAC00FB758B4BDB6903F08053002B0DD1884BF9
:101FBC00DB69874A43F08053D361854BDB6903F0BF
:101FCC008053BB60BB680123FB75824B1B6803F419
:101FDC008073002B18D17F4B1B687E4A43F48073AF
:101FEC001360FFF7CDFB386108E0FFF7C9FB024631
:101FFC003B69D31A642B01D9032303E1754B1B688E
:10200C0003F48073002BF0D07B68DB68012B06D1C6
:10201C006F4B1B6A6E4A43F0010313622DE07B6821
:10202C00DB68002B0CD16A4B1B6A694A23F0010355
:10203C001362674B1B6A664A23F0040313621CE0AD
:10204C007B68DB68052B0CD1614B1B6A604A43F043
:10205C00040313625E4B1B6A5D4A43F00103136277
:10206C000BE05B4B1B6A5A4A23F001031362584B7B
:10207C001B6A574A23F0040313627B68DB68002B4E
:10208C0015D0FFF77DFB38610AE0FFF779FB0246BC
:10209C003B69D31A41F28832934201D90323B1E050
:1020AC004B4B1B6A03F00203002BEED014E0FFF73E
:1020BC0067FB38610AE0FFF763FB02463B69D31A02
:1020CC0041F28832934201D903239BE0404B1B6AB7
:1020DC0003F00203002BEED1FB7D012B05D13C4B11
:1020EC00DB693B4A23F08053D3617B68DB69002BAF
:1020FC0000F08780364B5B6803F00C03082B61D033
:10210C007B68DB69022B46D1334B00221A60FFF748
:10211C0037FB386108E0FFF733FB02463B69D31A03
:10212C00022B01D903236DE0294B1B6803F00073CC
:10213C00002BF0D17B681B6AB3F5803F08D1244B90
:10214C005B6823F400327B689B68214913434B6026
:10215C001F4B5B6823F474127B68196A7B685B6A9B
:10216C000B431B4913434B601B4B01221A60FFF7B7
:10217C0007FB386108E0FFF703FB02463B69D31A03
:10218C00022B01D903233DE0114B1B6803F00073B4
:10219C00002BF0D035E0104B00221A60FFF7F0FA5C
:1021AC00386108E0FFF7ECFA02463B69D31A022BC0
:1021BC0001D9032326E0064B1B6803F00073002BA8
:1021CC00F0D11EE07B68DB69012B07D1012319E0FC
:1021DC000010024000700040600042420B4B5B68F4
:1021EC00FB60FB6803F480327B681B6A9A4206D161
:1021FC00FB6803F470127B685B6A9A4201D001237E
:10220C0000E0002318461837BD4680BD0010024080
:10221C0080B584B000AF786039607B68002B01D149
:10222C000123D0E06A4B1B6803F007033A689A421B
:10223C0010D9674B1B6823F0070265493B681343B1
:10224C000B60634B1B6803F007033A689A4201D09A
:10225C000123B8E07B681B6803F00203002B20D03D
:10226C007B681B6803F00403002B05D0594B5B689B
:10227C00584A43F4E06353607B681B6803F008031F
:10228C00002B05D0534B5B68524A43F460535360A8
:10229C00504B5B6823F0F0027B689B684D491343FD
:1022AC004B607B681B6803F00103002B40D07B68FC
:1022BC005B68012B07D1474B1B6803F40033002BE1
:1022CC0015D101237FE07B685B68022B07D1414B62
:1022DC001B6803F00073002B09D1012373E03D4B05
:1022EC001B6803F00203002B01D101236BE0394B77
:1022FC005B6823F003027B685B68364913434B60D1
:10230C00FFF73EFAF8600AE0FFF73AFA0246FB687C
:10231C00D31A41F28832934201D9032353E02D4B57
:10232C005B6803F00C027B685B689B009A42EBD104
:10233C00274B1B6803F007033A689A4210D2244BD0
:10234C001B6823F0070222493B6813430B60204BA8
:10235C001B6803F007033A689A4201D0012332E06C
:10236C007B681B6803F00403002B08D0194B5B68D7
:10237C0023F4E0627B68DB68164913434B607B688F
:10238C001B6803F00803002B09D0124B5B6823F485
:10239C0060527B681B69DB000E4913434B6000F0F5
:1023AC0021F802460B4B5B681B0903F00F030A492B
:1023BC00CB5C22FA03F3094A1360094B1B681846DD
:1023CC00FFF79CF9002318461037BD4680BD00BFAF
:1023DC000020024000100240142D00080C000020C8
:1023EC001000002080B487B000AF0023FB600023F6
:1023FC00BB6000237B6100237B6000233B611E4B91
:10240C005B68FB60FB6803F00C03042B02D0082B09
:10241C0003D027E0194B3B6127E0FB689B0C03F0D2
:10242C000F03174AD35C7B60FB6803F48033002BEB
:10243C0010D0114B5B685B0C03F00103114AD35CA9
:10244C00BB607B680D4A03FB02F2BB68B2FBF3F383
:10245C007B6104E07B680C4A02FB03F37B617B69C4
:10246C003B6102E0054B3B6100BF3B6918461C37E2
:10247C00BD4680BC704700BF0010024000127A00BD
:10248C00242D0008342D000800093D0080B485B0CF
:10249C0000AF78600A4B1B680A4AA2FB03235B0A55
:1024AC007A6802FB03F3FB6000BFFB685A1EFA60FC
:1024BC00002BF9D100BF00BF1437BD4680BC70475C
:1024CC000C000020D34D621080B582B000AF786054
:1024DC007B68002B01D1012341E07B6893F83D30F0
:1024EC00DBB2002B06D17B68002283F83C20786895
:1024FC00FFF76CF87B68022283F83D207B681A6832
:10250C007B6804331946104600F06EFA7B68012292
:10251C0083F846207B68012283F83E207B680122E9
:10252C0083F83F207B68012283F840207B680122DE
:10253C0083F841207B68012283F842207B680122CA
:10254C0083F843207B68012283F844207B680122B6
:10255C0083F845207B68012283F83D200023184630
:10256C000837BD4680BD000080B485B000AF7860F0
:10257C007B6893F83D30DBB2012B01D0012335E0B1
:10258C007B68022283F83D207B681B68DA687B68D5
:10259C001B6842F00102DA607B681B68164A9342A2
:1025AC0009D07B681B68B3F1804F04D07B681B6833
:1025BC00124A934211D17B681B689B6803F0070396
:1025CC00FB60FB68062B10D07B681B681A687B6865
:1025DC001B6842F001021A6007E07B681B681A68EE
:1025EC007B681B6842F001021A60002318461437FE
:1025FC00BD4680BC704700BF002C01400004004069
:10260C0080B582B000AF78607B681B681B6903F0F3
:10261C000203022B22D17B681B68DB6803F00203E8
:10262C00022B1BD17B681B686FF002021A617B685E
:10263C0001221A777B681B689B6903F00303002B4C
:10264C0003D0786800F0B4F905E0786800F0A7F9D9
:10265C00786800F0B6F97B6800221A777B681B68F3
:10266C001B6903F00403042B22D17B681B68DB6815
:10267C0003F00403042B1BD17B681B686FF004026E
:10268C001A617B6802221A777B681B689B6903F4CA
:10269C004073002B03D0786800F08AF905E0786865
:1026AC0000F07DF9786800F08CF97B6800221A77CD
:1026BC007B681B681B6903F00803082B22D17B681D
:1026CC001B68DB6803F00803082B1BD17B681B68B5
:1026DC006FF008021A617B6804221A777B681B680A
:1026EC00DB6903F00303002B03D0786800F060F97A
:1026FC0005E0786800F053F9786800F062F97B68BF
:10270C0000221A777B681B681B6903F01003102BDF
:10271C0022D17B681B68DB6803F01003102B1BD1E4
:10272C007B681B686FF010021A617B6808221A77AD
:10273C007B681B68DB6903F44073002B03D078685B
:10274C0000F036F905E0786800F029F9786800F0B7
:10275C0038F97B6800221A777B681B681B6903F0C9
:10276C000103012B0ED17B681B68DB6803F00103AE
:10277C00012B07D17B681B686FF001021A61786826
:10278C00FEF79AFE7B681B681B6903F08003802BA5
:10279C000ED17B681B68DB6803F08003802B07D1AC
:1027AC007B681B686FF080021A61786800F06BFA26
:1027BC007B681B681B6903F04003402B0ED17B68C0
:1027CC001B68DB6803F04003402B07D17B681B6858
:1027DC006FF040021A61786800F0FCF87B681B68A7
:1027EC001B6903F02003202B0ED17B681B68DB6870
:1027FC0003F02003202B07D17B681B686FF02002AD
:10280C001A61786800F036FA00BF0837BD4680BD03
:10281C0080B584B000AF786039600023FB737B68AF
:10282C0093F83C30012B01D10223B4E07B680122E8
:10283C0083F83C207B68022283F83D207B681B6870
:10284C009B68BB60BB6823F07703BB60BB6823F459
:10285C007F43BB607B681B68BA689A603B681B68E7
:10286C00B3F5005F3ED0B3F5005F00F28780B3F59F
:10287C00805F00F08680B3F5805F7FD8702B1AD014
:10288C00702B7BD8602B50D0602B77D8502B3CD042
:10289C00502B73D8402B58D0402B6FD8302B64D092
:1028AC00302B6BD8202B60D0202B67D8002B5CD022
:1028BC00102B5AD062E07B6818683B6899683B68BB
:1028CC005A683B68DB6800F05EF97B681B689B68A4
:1028DC00BB60BB6843F07703BB607B681B68BA685E
:1028EC009A604FE07B6818683B6899683B685A6847
:1028FC003B68DB6800F047F97B681B689A687B686B
:10290C001B6842F480429A603CE07B6818683B6824
:10291C0059683B68DB681A4600F0BEF87B681B6898
:10292C005021184600F015F92CE07B6818683B68BC
:10293C0059683B68DB681A4600F0DCF87B681B685A
:10294C006021184600F005F91CE07B6818683B68AC
:10295C0059683B68DB681A4600F09EF87B681B6878
:10296C004021184600F0F5F80CE07B681A683B68CB
:10297C001B681946104600F0ECF803E00123FB73CA
:10298C0000E000BF7B68012283F83D207B680022B9
:10299C0083F83C20FB7B18461037BD4680BD80B4C5
:1029AC0083B000AF786000BF0C37BD4680BC704769
:1029BC0080B483B000AF786000BF0C37BD4680BCDC
:1029CC00704780B483B000AF786000BF0C37BD4651
:1029DC0080BC704780B483B000AF786000BF0C3708
:1029EC00BD4680BC7047000080B485B000AF7860F5
:1029FC0039607B681B68FB607B68254A934207D073
:102A0C007B68B3F1804F03D07B68224A934208D194
:102A1C00FB6823F07003FB603B685B68FA68134348
:102A2C00FB607B681A4A934207D07B68B3F1804FF6
:102A3C0003D07B68174A934208D1FB6823F4407398
:102A4C00FB603B68DB68FA681343FB60FB6823F0B0
:102A5C0080023B685B691343FB607B68FA681A6011
:102A6C003B689A687B68DA623B681A687B689A6292
:102A7C007B68074A934203D13B681A697B681A63E7
:102A8C007B6801225A6100BF1437BD4680BC704779
:102A9C00002C01400004004080B487B000AFF86007
:102AAC00B9607A60FB681B6A7B61FB681B6A23F068
:102ABC000102FB681A62FB689B693B613B6923F06E
:102ACC00F0033B617B681B013A6913433B617B69F3
:102ADC0023F00A037B617A69BB6813437B61FB6853
:102AEC003A699A61FB687A691A6200BF1C37BD4665
:102AFC0080BC704780B487B000AFF860B9607A6072
:102B0C00FB681B6A7B61FB681B6A23F01002FB6885
:102B1C001A62FB689B693B613B6923F470433B6120
:102B2C007B681B033A6913433B617B6923F0A00369
:102B3C007B61BB681B017A6913437B61FB683A6953
:102B4C009A61FB687A691A6200BF1C37BD4680BC6B
:102B5C00704780B485B000AF786039607B689B6843
:102B6C00FB60FB6823F07003FB603A68FB6813435F
:102B7C0043F00703FB607B68FA689A6000BF143768
:102B8C00BD4680BC704780B487B000AFF860B960B8
:102B9C007A603B60FB689B687B617B6923F47F43B5
:102BAC007B613B681A027B681A43BB6813437A69E2
:102BBC0013437B61FB687A699A6000BF1C37BD4682
:102BCC0080BC704780B485B000AF786039607B689A
:102BDC0093F83C30012B01D1022341E07B680122A8
:102BEC0083F83C207B68022283F83D207B681B68BD
:102BFC005B68FB607B681B689B68BB60FB6823F0B1
:102C0C007003FB603B681B68FA681343FB607B68CE
:102C1C001B68FA685A607B681B68144A934209D097
:102C2C007B681B68B3F1804F04D07B681B68104A2B
:102C3C0093420CD1BB6823F08003BB603B685B689C
:102C4C00BA681343BB607B681B68BA689A607B6880
:102C5C00012283F83D207B68002283F83C2000236E
:102C6C0018461437BD4680BC704700BF002C01408D
:102C7C000004004080B483B000AF786000BF0C3714
:102C8C00BD4680BC704780B483B000AF786000BF95
:102C9C000C37BD4680BC704703460244934200D1BA
:102CAC00704703F8011BF9E770B500260C4D0D4C6D
:102CBC00641BA410A64209D100F01AF800260A4D94
:102CCC000A4C641BA410A64205D170BD55F8043BF8
:102CDC0098470136EEE755F8043B98470136F2E782
:102CEC00382D0008382D0008382D00083C2D000820
:102CFC00F8B500BFF8BC08BC9E467047F8B500BFDD
:082D0C00F8BC08BC9E467047AC
:102D14000000000000000000010203040607080987
:102D240002030405060708090A0B0C0D0E0F101008
:042D34000102000098
:042D3800310100085D
:042D3C000D0100087D
:102D40000500000003000000020000000024F40061
:082D500010000000010000006A
:040000050800169148
:00000001FF
