:020000040800F2
:1000000000280020B9170008491700084F170008FA
:10001000551700085B170008611700080000000072
:10002000000000000000000000000000671700084A
:1000300073170008000000007F1700088B170008E6
:10004000011800080118000801180008011800082C
:10005000011800080118000801180008011800081C
:10006000011800080118000801180008011800080C
:1000700001180008011800080118000801180008FC
:1000800001180008011800080118000801180008EC
:1000900001180008011800080118000801180008DC
:1000A00001180008011800080118000801180008CC
:1000B0009917000801180008000000000118000846
:1000C00001180008000000000000000001180008EE
:1000D00000000000011800080118000800000000DE
:1000E00001180008011800080118000800000000AD
:1000F0000000000000000000000000000000000000
:0C01000000000000000000005FF808F1A3
:10010C0010B5054C237833B9044B13B10448AFF345
:10011C0000800123237010BD580000200000000057
:10012C00502E000808B5034B1BB103490348AFF32D
:10013C00008008BD000000005C000020502E00086C
:10014C0080B483B000AF7860094A7B6852F82330E2
:10015C00012B06D1064A7B68002142F823100123AB
:10016C0000E0002318460C37BD4680BC704700BF2A
:10017C007400002080B483B000AF7860044A7B68C0
:10018C00012142F8231000BF0C37BD4680BC7047DC
:10019C007400002080B582B000AF00237B6063E068
:1001AC00354A7B6852F8232034497B6841F8232078
:1001BC00334A7B6852F823202F497B6841F823206F
:1001CC00304A7B6852F823309BB219462E4801F016
:1001DC00FFFD034619462A4A7B6842F82310264A3B
:1001EC007B6852F8232026497B6851F823309A42C9
:1001FC0037D1214A7B6852F8232020497B6851F87B
:10020C0023309A422DD11D4A7B6852F823201F4976
:10021C007B6851F823309A4215D0184A7B6852F803
:10022C0023201A497B6841F82320184A7B6852F82E
:10023C002330002B15D1164B4FF4FA721A607868E4
:10024C00FFF798FF0DE0124B1B68013B104A13603F
:10025C000F4B1B68002B04D10C4A7B68012142F820
:10026C0023107B6801337B607B68022B98DD00BF19
:10027C0000BF0837BD4680BD1800002024000020B8
:10028C000C0000200000002000080140300000207D
:10029C003C00002080B582B000AF0346FB71FB79B7
:1002AC00032B4BD801A252F823F000BFC90200085F
:1002BC00E9020008290300080903000801220821AB
:1002CC00214801F09CFD012204211F4801F097FDFB
:1002DC00012202211C4801F092FD30E0012208218C
:1002EC00194801F08CFD01220421174801F087FD0B
:1002FC0000220221144801F082FD20E00122082195
:10030C00114801F07CFD002204210F4801F077FD1B
:10031C00012202210C4801F072FD10E0002208219C
:10032C00094801F06CFD01220421074801F067FD2A
:10033C0001220221044801F062FD00E000BF00BF71
:10034C000837BD4680BD00BF0008014080B582B0B3
:10035C0000AF0346FB71FB79032B4BD801A252F87B
:10036C0023F000BF81030008A1030008E10300088B
:10037C00C103000801224021214801F040FD012267
:10038C0020211F4801F03BFD012210211C4801F0E7
:10039C0036FD30E001224021194801F030FD0122E8
:1003AC002021174801F02BFD00221021144801F0E8
:1003BC0026FD20E001224021114801F020FD002201
:1003CC0020210F4801F01BFD012210210C4801F0E7
:1003DC0016FD10E000224021094801F010FD012219
:1003EC002021074801F00BFD01221021044801F0E7
:1003FC0006FD00E000BF00BF0837BD4680BD00BF52
:10040C000008014080B582B000AF0346FB71FB7958
:10041C00032B0ED0032B1EDC012B13D0022B1AD175
:10042C0008210F4801F003FD40210D4801F0FFFCAD
:10043C0012E004210A4801F0FAFC2021084801F0DE
:10044C00F6FC09E00221064801F0F1FC10210448F9
:10045C0001F0EDFC00E000BF00BF0837BD4680BDD9
:10046C000008014080B582B000AF78607B68092B32
:10047C0000F2808101A252F823F000BFB104000801
:10048C00F90400084105000889050008D105000899
:10049C001906000861060008A9060008F106000804
:1004AC003907000800220121B54801F0A8FC002200
:1004BC000221B34801F0A3FC00220421B04801F052
:1004CC009EFC00220821AE4801F099FC002210216C
:1004DC00AB4801F094FC00222021A94801F08FFCCC
:1004EC0001224021A64801F08AFC44E101220121AD
:1004FC00A34801F084FC00220221A14801F07FFCFA
:10050C00002204219E4801F07AFC012208219C481B
:10051C0001F075FC01221021994801F070FC0122B8
:10052C002021974801F06BFC01224021944801F0F6
:10053C0066FC20E100220121914801F060FC0022C0
:10054C0002218F4801F05BFC012204218C4801F050
:10055C0056FC002208218A4801F051FC002210218F
:10056C00874801F04CFC01222021854801F047FC12
:10057C0000224021824801F042FCFCE000220121D3
:10058C007F4801F03CFC002202217D4801F037FC41
:10059C00002204217A4801F032FC0022082178481C
:1005AC0001F02DFC01221021754801F028FC0122DC
:1005BC002021734801F023FC00224021704801F0F7
:1005CC001EFCD8E0012201216D4801F018FC00222C
:1005DC0002216B4801F013FC00220421684801F051
:1005EC000EFC01220821664801F009FC01221021B1
:1005FC00634801F004FC00222021614801F0FFFB5C
:10060C00002240215E4801F0FAFBB4E000220121F7
:10061C005B4801F0F4FB01220221594801F0EFFB89
:10062C0000220421564801F0EAFB0022082154481C
:10063C0001F0E5FB01221021514801F0E0FB002202
:10064C0020214F4801F0DBFB002240214C4801F0F7
:10065C00D6FB90E000220121494801F0D0FB012299
:10066C000221474801F0CBFB00220421444801F051
:10067C00C6FB00220821424801F0C1FB00221021D8
:10068C003F4801F0BCFB002220213D4801F0B7FBA4
:10069C00002240213A4801F0B2FB6CE0002201211B
:1006AC00374801F0ACFB00220221354801F0A7FBD2
:1006BC0000220421324801F0A2FB0122082130481B
:1006CC0001F09DFB012210212D4801F098FB012225
:1006DC0020212B4801F093FB01224021284801F0F6
:1006EC008EFB48E000220121254801F088FB002206
:1006FC000221234801F083FB00220421204801F051
:10070C007EFB002208211E4801F079FB00221021FB
:10071C001B4801F074FB00222021194801F06FFBEB
:10072C0000224021164801F06AFB24E0002201213E
:10073C00134801F064FB00220221114801F05FFB19
:10074C00002204210E4801F05AFB002208210C481B
:10075C0001F055FB01221021094801F050FB002249
:10076C002021074801F04BFB00224021044801F0F6
:10077C0046FB00E000BF00BF0837BD4680BD00BF90
:10078C00000C014080B582B000AF78607B68092B0B
:10079C0000F2BC8101A252F823F000BFD10700087F
:1007AC002508000879080008CD0800082109000870
:1007BC0075090008C90900081D0A0008710A00081B
:1007CC00C50A000800228021D34801F018FB002242
:1007DC004FF48071D04801F012FB00224FF40071ED
:1007EC00CD4801F00CFB00224FF48061CA4801F0A7
:1007FC0006FB00224FF40061C74801F000FB002209
:10080C004FF48051C44801F0FAFA01224FF4005120
:10081C00C14801F0F4FA7AE101228021BE4801F0CE
:10082C00EEFA00224FF48071BB4801F0E8FA002286
:10083C004FF40071B84801F0E2FA01224FF48061E4
:10084C00B54801F0DCFA01224FF40061B24801F026
:10085C00D6FA01224FF48051AF4801F0D0FA0122B0
:10086C004FF40051AC4801F0CAFA50E1002280214B
:10087C00A94801F0C4FA00224FF48071A64801F097
:10088C00BEFA01224FF40071A34801F0B8FA00221D
:10089C004FF48061A04801F0B2FA00224FF40061DD
:1008AC009D4801F0ACFA01224FF480519A4801F0B6
:1008BC00A6FA00224FF40051974801F0A0FA26E165
:1008CC0000228021944801F09AFA00224FF48071A2
:1008DC00914801F094FA00224FF400718E4801F017
:1008EC008EFA00224FF480618B4801F088FA0122C5
:1008FC004FF40061884801F082FA01224FF48051D4
:10090C00854801F07CFA00224FF40051824801F036
:10091C0076FAFCE0012280217F4801F070FA002277
:10092C004FF480717C4801F06AFA00224FF4007198
:10093C00794801F064FA01224FF48061764801F0A5
:10094C005EFA01224FF40061734801F058FA00225C
:10095C004FF48051704801F052FA00224FF40051CC
:10096C006D4801F04CFAD2E0002280216A4801F077
:10097C0046FA01224FF48071674801F040FA0022D8
:10098C004FF40071644801F03AFA00224FF4806190
:10099C00614801F034FA01224FF400615E4801F025
:1009AC002EFA00224FF480515B4801F028FA002205
:1009BC004FF40051584801F022FAA8E0002280219F
:1009CC00554801F01CFA01224FF48071524801F095
:1009DC0016FA00224FF400714F4801F010FA002271
:1009EC004FF480614C4801F00AFA00224FF4006188
:1009FC00494801F004FA00224FF48051464801F0B6
:100A0C00FEF900224FF40051434801F0F8F97EE062
:100A1C0000228021404801F0F2F900224FF480714D
:100A2C003D4801F0ECF900224FF400713A4801F016
:100A3C00E6F901224FF48061374801F0E0F9012218
:100A4C004FF40061344801F0DAF901224FF480517F
:100A5C00314801F0D4F901224FF400512E4801F035
:100A6C00CEF954E0002280212B4801F0C8F9002275
:100A7C004FF48071284801F0C2F900224FF4007144
:100A8C00254801F0BCF900224FF48061224801F0A6
:100A9C00B6F900224FF400611F4801F0B0F90022B2
:100AAC004FF480511C4801F0AAF900224FF4005178
:100ABC00194801F0A4F92AE000228021164801F01F
:100ACC009EF900224FF48071134801F098F900222E
:100ADC004FF40071104801F092F900224FF480613C
:100AEC000D4801F08CF901224FF400610A4801F025
:100AFC0086F900224FF48051074801F080F900225A
:100B0C004FF40051044801F07AF900E000BF00BF37
:100B1C000837BD4680BD00BF000C014080B500AF5A
:100B2C0000228021054801F06AF901224FF48071FE
:100B3C00024801F064F900BF80BD00BF000801400D
:100B4C0080B500AF01228021054801F058F9002240
:100B5C004FF48071024801F052F900BF80BD00BF14
:100B6C000008014080B500AF00224FF40071054829
:100B7C0001F045F901224FF48061024801F03FF980
:100B8C0000BF80BD0008014080B500AF01224FF4CA
:100B9C000071054801F033F900224FF480610248DE
:100BAC0001F02DF900BF80BD0008014080B582B076
:100BBC0000AF78603960FFF7B1FF7B680C4A82FBAD
:100BCC0003129210DB17D31A1846FFF74BFCFFF7F2
:100BDC00C9FF3B68064A82FB03129210DB17D31A3B
:100BEC001846FFF7CFFD00BF0837BD4680BD00BFDC
:100BFC006766666680B582B000AF78603960FFF7D3
:100C0C009FFF7A68114B83FB02139910D317C91AF3
:100C1C000B469B000B445B00D11A0846FFF722FCE5
:100C2C00FFF7B2FF3A68094B83FB02139910D317F5
:100C3C00C91A0B469B000B445B00D11A0846FFF700
:100C4C00A1FD00BF0837BD4680BD00BF6766666664
:100C5C0080B500AF0020FFF773FA0346012B02D1D9
:100C6C00974B02221A70964B1B78012B40F0258172
:100C7C00944B1B78032B67D801A252F823F000BFCA
:100C8C009D0C0008AD0C0008E50C00081D0D0008BB
:100C9C008C4B01221A706421002000F0C9FC5AE030
:100CAC000120FFF7F7FA884B1B68012B4ED1874BBD
:100CBC001B68013B854A1360844B1B68002B06D1D3
:100CCC00834B1B68814A13607E4B02221A7064218D
:100CDC00002000F0ADFC39E00220FFF7DBFA7A4B84
:100CEC001B68012B34D1794B1B68013B774A13608D
:100CFC00764B1B68002B06D1764B1B68734A13602E
:100D0C00704B03221A706421002000F091FC1FE04C
:100D1C000320FFF7BFFA6C4B1B68012B1AD16B4BEE
:100D2C001B68013B694A1360684B1B68002B06D19A
:100D3C00694B1B68654A1360624B01221A7064216F
:100D4C00002000F075FC05E000BF04E000BF02E0ED
:100D5C0000BF00E000BF614B1B78032B66D801A2DB
:100D6C0052F823F0810D0008910D0008C90D000800
:100D7C00010E0008594B02221A706421012000F068
:100D8C0057FC5AE00120FFF7E1FA4F4B5B68012B4F
:100D9C004ED1534B1B68013B514A1360504B1B689F
:100DAC00002B06D14A4B1B684D4A13604B4B022259
:100DBC001A706421012000F03BFC39E00220FFF79F
:100DCC00C5FA414B5B68012B34D1454B1B68013B89
:100DDC00434A1360424B1B68002B06D13D4B1B68EA
:100DEC003F4A13603D4B03221A706421012000F02E
:100DFC001FFC1FE00320FFF7A9FA334B5B68012BA4
:100E0C001AD1374B1B68013B354A1360344B1B68B6
:100E1C00002B06D1304B1B68314A13602F4B01223B
:100E2C001A706421012000F003FC05E000BF04E00F
:100E3C0000BF02E000BF00E000BF2A4B1B78022B72
:100E4C0022D0022B34DC002B02D0012B08D02FE057
:100E5C00244B01221A700121022000F0E9FB2CE046
:100E6C00194B9B68012B25D1184B1B681C4A126827
:100E7C0011461846FFF79AFE1A4B02221A703221BD
:100E8C00022000F0D5FB15E00F4B9B68012B13D112
:100E9C000E4B1B68124A126811461846FFF7AAFE41
:100EAC00104B01221A703221022000F0C1FB03E02A
:100EBC0000BF02E000BF00E000BF00BF80BD00BF6C
:100ECC00800000208A0000200801002090000020F3
:100EDC004400002048000020400000208B0000202F
:100EEC00940000208C00002080B500AF474B1B788D
:100EFC00002B02D0012B08D013E0444B01221A70B6
:100F0C001921032000F094FB0BE0414BDB68012B13
:100F1C0006D10120FFF776FA1921032000F088FB97
:100F2C0000BF3C4B1B78002B02D0012B0FD02FE0C5
:100F3C000120FFF705F90346012B26D1354B012281
:100F4C001A70354B1B680133334A13601DE00120C6
:100F5C00FFF7F6F80346012B0BD12F4B1B6801331F
:100F6C002D4A13602C4B1B68622B02DD2A4B01228D
:100F7C001A600220FFF7E4F80346012B07D1274B38
:100F8C0001221A7000F0C8F901E000BF00E000BFB8
:100F9C00234B1B78022B20D0022B30DC002B02D0F1
:100FAC00012B08D02BE01E4B01221A7019210420B2
:100FBC0000F03EFB28E0164B1B69012B21D1164B90
:100FCC001B6819460120FFF7F1FD154B02221A7020
:100FDC001921042000F02CFB13E00D4B1B69012B95
:100FEC0011D10D4B1B6819460120FFF703FE192187
:100FFC00042000F01DFB0A4B01221A7003E000BF15
:10100C0002E000BF00E000BF00BF80BD81000020F7
:10101C0008010020830000204000002080000020F8
:10102C008200002080B500AF474B1B78002B02D00C
:10103C00012B08D013E0444B01221A701921052012
:10104C0000F0F6FA0BE0414B5B69012B06D1032053
:10105C00FFF7D8F91921052000F0EAFA00BF3C4B44
:10106C001B78002B02D0012B0FD02FE00120FFF7B3
:10107C0067F80346012B26D1354B01221A70354BEC
:10108C001B680133334A13601DE00120FFF758F849
:10109C000346012B0BD12F4B1B6801332D4A1360D8
:1010AC002C4B1B68622B02DD2A4B01221A6002209A
:1010BC00FFF746F80346012B07D1274B01221A7084
:1010CC0000F02AF901E000BF00E000BF234B1B78C1
:1010DC00022B20D0022B30DC002B02D0012B08D0AD
:1010EC002BE01E4B01221A701921062000F0A0FAE9
:1010FC0028E0164B9B69012B21D1164B1B68194616
:10110C000120FFF753FD154B02221A7019210620FE
:10111C0000F08EFA13E00D4B9B69012B11D10D4B96
:10112C001B6819460120FFF765FD1921062000F008
:10113C007FFA0A4B01221A7003E000BF02E000BFE5
:10114C0000E000BF00BF80BD84000020080100202B
:10115C008600002048000020800000208500002030
:10116C0080B500AF474B1B78002B02D0012B08D069
:10117C0013E0444B01221A701921072000F058FA91
:10118C000BE0414BDB69012B06D10220FFF73AF94A
:10119C001921072000F04CFA00BF3C4B1B78002BA8
:1011AC0002D0012B0FD02FE00120FEF7C9FF034620
:1011BC00012B26D1354B01221A70354B1B6801339C
:1011CC00334A13601DE00120FEF7BAFF0346012BE2
:1011DC000BD12F4B1B6801332D4A13602C4B1B6812
:1011EC00622B02DD2A4B01221A600220FEF7A8FFB7
:1011FC000346012B07D1274B01221A7000F08CF803
:10120C0001E000BF00E000BF234B1B78022B20D075
:10121C00022B30DC002B02D0012B08D02BE01E4B14
:10122C0001221A701921082000F002FA28E0164B4E
:10123C001B6A012B21D1164B1B6819460120FFF7A5
:10124C00B5FC154B02221A701921082000F0F0F998
:10125C0013E00D4B1B6A012B11D10D4B1B6819466A
:10126C000120FFF7C7FC1921082000F0E1F90A4B17
:10127C0001221A7003E000BF02E000BF00E000BFD3
:10128C0000BF80BD870000200801002089000020DD
:10129C0044000020800000208800002080B500AFB2
:1012AC001C4B1B78042B1ED0042B2ADC022B02D0E7
:1012BC00032B0CD025E0FFF717FE0020FEF740FFB4
:1012CC000346012B1FD1134B03221A701BE0FFF7AF
:1012DC00A9FE0020FEF734FF0346012B15D10D4B60
:1012EC0004221A7011E0FFF73BFF0020FEF728FFE5
:1012FC000346012B0BD1074B01221A7000F00CF89E
:10130C0005E000BF04E000BF02E000BF00E000BF4A
:10131C0000BF80BD8000002080B400AF194B0122BB
:10132C001A70194B00221A70184B00221A70184BA5
:10133C0000221A70174B00221A70174B00221A70D9
:10134C00164B00221A70164B00221A70154B0022F5
:10135C001A70154B00221A70144B00221A70144B81
:10136C0000221A70134B00221A70134B1B68134A7D
:10137C001360134B1B68134A136000BFBD4680BC3F
:10138C00704700BF800000208100002082000020F8
:10139C0083000020840000208500002086000020AF
:1013AC008700002088000020890000208A0000208F
:1013BC008B0000208C0000204000002090000020BA
:1013CC00440000209400002080B500AF00F014FA17
:1013DC0000F014F800F09AF800F04CF8064801F010
:1013EC006DF9FFF799FF0020FEF754FFFFF730FC73
:1013FC00FFF754FFFAE700BF9800002080B590B0CB
:10140C0000AF07F1180328220021184601F0EEFC6A
:10141C003B1D00221A605A609A60DA601A6102233E
:10142C00BB610123BB621023FB6200237B6307F1CA
:10143C001803184600F014FD0346002B01D000F0F1
:10144C00F2F80F237B600023BB600023FB600023BA
:10145C003B6100237B613B1D0021184600F082FF9D
:10146C000346002B01D000F0DEF800BF4037BD462C
:10147C0080BD000080B586B000AF07F108030022E4
:10148C001A605A609A60DA603B4600221A605A6011
:10149C001D4B4FF080421A601B4B41F63F725A6055
:1014AC00194B00229A60184B0A22DA60164B002264
:1014BC001A61154B00229A61134801F0AFF80346EC
:1014CC00002B01D000F0AFF84FF48053BB6007F154
:1014DC00080319460C4801F045FA0346002B01D0CD
:1014EC0000F0A1F800233B6000237B603B461946CB
:1014FC00054801F011FC0346002B01D000F093F8D5
:10150C0000BF1837BD4680BD9800002080B586B05E
:10151C0000AF07F1080300221A605A609A60DA6083
:10152C002B4B9B692A4A43F004039361284B9B691C
:10153C0003F004037B607B68254B9B69244A43F0D2
:10154C0008039361224B9B6903F008033B603B68E3
:10155C0000227E211F4800F052FC01224FF4FC5166
:10156C001C4800F04CFC002243F6FF711A4800F0B6
:10157C0046FC41F6FE73BB600123FB6000233B611C
:10158C0002237B6107F108031946124800F0A4FA04
:10159C0043F6FF73BB600123FB6000233B61022316
:1015AC007B6107F1080319460B4800F095FA4FF4DC
:1015BC006043BB600023FB6001233B6107F1080320
:1015CC001946044800F088FA00BF1837BD4680BDA4
:1015DC000010024000080140000C014080B582B0B0
:1015EC0000AF7860002000F03BF8012000F038F8E4
:1015FC00022000F035F8032000F032F8042000F04F
:10160C002FF8052000F02CF8062000F029F8072010
:10161C0000F026F8082000F023F8FEF7BBFD00BF11
:10162C000837BD4680BD80B400AF72B600BFFEE780
:10163C0080B483B000AF7860396007497B683A6842
:10164C0041F82320054A7B68002142F8231000BF93
:10165C000C37BD4680BC7047E0000020080100201C
:10166C0080B483B000AF78600F4A7B6852F82330A7
:10167C00002B13DD0C4A7B6852F823305A1E0A49A2
:10168C007B6841F82320084A7B6852F82330002BF2
:10169C0004DC064A7B68012142F8231000BF0C379A
:1016AC00BD4680BC704700BFE00000200801002050
:1016BC0080B483B000AF0E4B9B690D4A43F001031D
:1016CC0093610B4B9B6903F001037B607B68084BB8
:1016DC00DB69074A43F08053D361054BDB6903F0A8
:1016EC0080533B603B6800BF0C37BD4680BC7047E5
:1016FC000010024080B584B000AF78607B681B6836
:10170C00B3F1804F13D10C4BDB690B4A43F001034F
:10171C00D361094BDB6903F00103FB60FB6800221A
:10172C0000211C2000F0A1F91C2000F0BAF900BF28
:10173C001037BD4680BD00BF0010024080B400AF22
:10174C00FEE780B400AFFEE780B400AFFEE780B4E4
:10175C0000AFFEE780B400AFFEE780B400AF00BF7F
:10176C00BD4680BC704780B400AF00BFBD4680BC96
:10177C00704780B400AF00BFBD4680BC704780B5D9
:10178C0000AF00F07FF800BF80BD000080B500AF57
:10179C00024800F0DFFF00BF80BD00BF98000020B2
:1017AC0080B400AF00BFBD4680BC7047FFF7F8FFA8
:1017BC000B480C490C4A002302E0D458C4500433A3
:1017CC00C4188C42F9D3094A094C002301E0136078
:1017DC000432A242FBD301F011FBFFF7F5FD704779
:1017EC000000002058000020942E00085800002013
:1017FC0034010020FEE7000080B500AF084B1B68E9
:10180C00074A43F010031360032000F023F90F2064
:10181C0000F008F8FFF74CFF0023184680BD00BF0E
:10182C000020024080B582B000AF7860124B1A687D
:10183C00124B1B7819464FF47A73B3FBF1F3B2FBDE
:10184C00F3F3184600F03BF90346002B01D00123BB
:10185C000EE07B680F2B0AD8002279684FF0FF301E
:10186C0000F003F9064A7B681360002300E00123B3
:10187C0018460837BD4680BD4C000020540000209F
:10188C005000002080B400AF054B1B781A46054B66
:10189C001B681344034A136000BFBD4680BC7047ED
:1018AC00540000203001002080B400AF024B1B68B4
:1018BC001846BD4680BC70473001002080B485B00E
:1018CC0000AF78607B6803F00703FB600C4BDB68B0
:1018DC00BB60BA684FF6FF031340BB60FB681A028B
:1018EC00BB68134343F0BF6343F40033BB60044A4B
:1018FC00BB68D36000BF1437BD4680BC704700BFC7
:10190C0000ED00E080B400AF044BDB681B0A03F071
:10191C0007031846BD4680BC704700BF00ED00E0D1
:10192C0080B483B000AF0346FB7197F90730002BEE
:10193C000BDBFB7903F01F02064997F907305B09B3
:10194C00012000FA02F241F8232000BF0C37BD46FB
:10195C0080BC704700E100E080B483B000AF034668
:10196C003960FB7197F90730002B0ADB3B68DAB260
:10197C000C4997F907301201D2B20B4483F80023BB
:10198C000AE03B68DAB20849FB7903F00F03043B29
:10199C001201D2B20B441A7600BF0C37BD4680BC84
:1019AC00704700BF00E100E000ED00E080B489B0BA
:1019BC0000AFF860B9607A60FB6803F00703FB6165
:1019CC00FB69C3F10703042B28BF0423BB61FB692C
:1019DC000433062B02D9FB69033B00E000237B6137
:1019EC004FF0FF32BB6902FA03F3DA43BB681A40CB
:1019FC007B699A404FF0FF317B6901FA03F3D943BD
:101A0C007B680B40134318462437BD4680BC704797
:101A1C0080B582B000AF78607B68013BB3F1807F0A
:101A2C0001D301230FE00A4A7B68013B53600F216D
:101A3C004FF0FF30FFF790FF054B00229A60044BEC
:101A4C0007221A60002318460837BD4680BD00BF28
:101A5C0010E000E080B582B000AF78607868FFF7E6
:101A6C002DFF00BF0837BD4680BD80B586B000AFE6
:101A7C000346B9607A60FB7300237B61FFF742FF7A
:101A8C0078617A68B9687869FFF790FF024697F930
:101A9C000F3011461846FFF75FFF00BF1837BD46E1
:101AAC0080BD80B582B000AF0346FB7197F907305B
:101ABC001846FFF735FF00BF0837BD4680BD80B51F
:101ACC0082B000AF78607868FFF7A2FF0346184633
:101ADC000837BD4680BD000080B48BB000AF786085
:101AEC00396000237B6200233B6261E101227B6A47
:101AFC0002FA03F3FB613B681B68FA691340BB6194
:101B0C00BA69FB699A4240F050813B685B68974A1E
:101B1C0093425ED0954A934275D8954A934258D0D9
:101B2C00934A93426FD8934A934252D0914A93422C
:101B3C0069D8914A93424CD08F4A934263D88F4ACA
:101B4C00934246D08D4A93425DD8122B2AD8122B41
:101B5C0059D801A252F823F0DF1B0008B91B00086A
:101B6C00CB1B00080D1C0008131C0008131C0008DC
:101B7C00131C0008131C0008131C0008131C00087D
:101B8C00131C0008131C0008131C0008131C00086D
:101B9C00131C0008131C0008131C0008C11B0008B0
:101BAC00D51B0008764A934213D02CE03B68DB68C7
:101BBC003B6229E03B68DB6804333B6224E03B6812
:101BCC00DB6808333B621FE03B68DB680C333B622D
:101BDC001AE03B689B68002B02D104233B6213E0A4
:101BEC003B689B68012B05D108233B627B68FA6933
:101BFC001A6109E008233B627B68FA695A6103E0C9
:101C0C0000233B6200E000BFBB69FF2B01D87B685F
:101C1C0001E07B6804337B61BB69FF2B02D87B6AD4
:101C2C009B0002E07B6A083B9B003B617B691A6866
:101C3C000F213B6901FA03F3DB431A40396A3B6914
:101C4C0001FA03F31A437B691A603B685B6803F083
:101C5C008053002B00F0A9804A4B9B69494A43F002
:101C6C0001039361474B9B6903F00103BB60BB68A5
:101C7C00454A7B6A9B08023352F82330FB607B6A2F
:101C8C0003F003039B000F2202FA03F3DB43FA6811
:101C9C001340FB607B683D4A93420DD07B683C4A05
:101CAC00934207D07B683B4A934201D1022304E064
:101CBC00032302E0012300E000237A6A02F003020E
:101CCC0092009340FA681343FB602F497B6A9B0890
:101CDC000233FA6841F823203B685B6803F48013F5
:101CEC00002B06D02C4B9A682B49BB6913438B6095
:101CFC0006E0294B9A68BB69DB43274913408B608C
:101D0C003B685B6803F40013002B06D0224BDA68A7
:101D1C002149BB691343CB6006E01F4BDA68BB69F2
:101D2C00DB431D491340CB603B685B6803F4003315
:101D3C00002B06D0184B5A681749BB6913434B60EC
:101D4C0006E0154B5A68BB69DB43134913404B60E3
:101D5C003B685B6803F48033002B1FD00E4B1A6872
:101D6C000D49BB6913430B601FE000BF000032102C
:101D7C000000311000002210000021100000121091
:101D8C00000011100010024000000140000801404A
:101D9C00000C014000100140000401400B4B1A687C
:101DAC00BB69DB43094913400B607B6A01337B62DF
:101DBC003B681A687B6A22FA03F3002B7FF496AE19
:101DCC0000BF00BF2C37BD4680BC704700040140EB
:101DDC0080B485B000AF78600B467B807B689A68D6
:101DEC007B881340002B02D00123FB7301E00023FE
:101DFC00FB73FB7B18461437BD4680BC704780B420
:101E0C0083B000AF78600B467B8013467B707B7889
:101E1C00002B03D07A887B681A6103E07B881A0454
:101E2C007B681A6100BF0C37BD4680BC704780B41C
:101E3C0085B000AF78600B467B807B68DB68FB600D
:101E4C007A88FB6813401A04FB68D9437B880B40E3
:101E5C001A437B681A6100BF1437BD4680BC7047BB
:101E6C0080B586B000AF78607B68002B01D1012370
:101E7C0072E27B681B6803F00103002B00F0878083
:101E8C00924B5B6803F00C03042B0CD08F4B5B68FC
:101E9C0003F00C03082B12D18C4B5B6803F48033DA
:101EAC00B3F5803F0BD1894B1B6803F40033002B37
:101EBC006CD07B685B68002B68D101234CE27B689B
:101ECC005B68B3F5803F06D1804B1B687F4A43F4B7
:101EDC00803313602EE07B685B68002B0CD17B4B4E
:101EEC001B687A4A23F480331360784B1B68774A5B
:101EFC0023F4802313601DE07B685B68B3F5A02F8F
:101F0C000CD1724B1B68714A43F4802313606F4BE6
:101F1C001B686E4A43F4803313600BE06B4B1B68F9
:101F2C006A4A23F480331360684B1B68674A23F4B6
:101F3C00802313607B685B68002B13D0FFF7B4FC25
:101F4C00386108E0FFF7B0FC02463B69D31A642BFA
:101F5C0001D9032300E25D4B1B6803F40033002B13
:101F6C00F0D014E0FFF7A0FC386108E0FFF79CFC10
:101F7C0002463B69D31A642B01D90323ECE1534B82
:101F8C001B6803F40033002BF0D100E000BF7B682A
:101F9C001B6803F00203002B63D04C4B5B6803F00F
:101FAC000C03002B0BD0494B5B6803F00C03082B84
:101FBC001CD1464B5B6803F48033002B16D1434B8A
:101FCC001B6803F00203002B05D07B681B69012BF7
:101FDC0001D00123C0E13D4B1B6823F0F8027B6864
:101FEC005B69DB00394913430B603AE07B681B6982
:101FFC00002B20D0364B01221A60FFF755FC3861BC
:10200C0008E0FFF751FC02463B69D31A022B01D9B9
:10201C000323A1E12D4B1B6803F00203002BF0D02E
:10202C002A4B1B6823F0F8027B685B69DB002749AD
:10203C0013430B6015E0264B00221A60FFF734FCAB
:10204C00386108E0FFF730FC02463B69D31A022BDB
:10205C0001D9032380E11D4B1B6803F00203002B05
:10206C00F0D17B681B6803F00803002B3AD07B6827
:10207C009B69002B19D0174B01221A60FFF714FC37
:10208C00386108E0FFF710FC02463B69D31A022BBB
:10209C0001D9032360E10D4B5B6A03F00203002BB3
:1020AC00F0D0012000F09CFA1CE00A4B00221A60D0
:1020BC00FFF7FAFB38610FE0FFF7F6FB02463B69CE
:1020CC00D31A022B08D9032346E100BF00100240AB
:1020DC000000424280044242924B5B6A03F00203CE
:1020EC00002BE9D17B681B6803F00403002B00F084
:1020FC00A6800023FB758B4BDB6903F08053002B10
:10210C000DD1884BDB69874A43F08053D361854BF3
:10211C00DB6903F08053BB60BB680123FB75824B0A
:10212C001B6803F48073002B18D17F4B1B687E4A0D
:10213C0043F480731360FFF7B7FB386108E0FFF7D7
:10214C00B3FB02463B69D31A642B01D9032303E189
:10215C00754B1B6803F48073002BF0D07B68DB6835
:10216C00012B06D16F4B1B6A6E4A43F001031362BD
:10217C002DE07B68DB68002B0CD16A4B1B6A694A2B
:10218C0023F001031362674B1B6A664A23F00403B6
:10219C0013621CE07B68DB68052B0CD1614B1B6A5E
:1021AC00604A43F0040313625E4B1B6A5D4A43F0C2
:1021BC00010313620BE05B4B1B6A5A4A23F00103C9
:1021CC001362584B1B6A574A23F0040313627B6853
:1021DC00DB68002B15D0FFF767FB38610AE0FFF7CF
:1021EC0063FB02463B69D31A41F28832934201D910
:1021FC000323B1E04B4B1B6A03F00203002BEED020
:10220C0014E0FFF751FB38610AE0FFF74DFB024683
:10221C003B69D31A41F28832934201D903239BE0E4
:10222C00404B1B6A03F00203002BEED1FB7D012B0C
:10223C0005D13C4BDB693B4A23F08053D3617B686F
:10224C00DB69002B00F08780364B5B6803F00C03D6
:10225C00082B61D07B68DB69022B46D1334B002203
:10226C001A60FFF721FB386108E0FFF71DFB0246FF
:10227C003B69D31A022B01D903236DE0294B1B6850
:10228C0003F00073002BF0D17B681B6AB3F5803F21
:10229C0008D1244B5B6823F400327B689B6821498E
:1022AC0013434B601F4B5B6823F474127B68196AF1
:1022BC007B685B6A0B431B4913434B601B4B01222E
:1022CC001A60FFF7F1FA386108E0FFF7EDFA024601
:1022DC003B69D31A022B01D903233DE0114B1B6838
:1022EC0003F00073002BF0D035E0104B00221A6085
:1022FC00FFF7DAFA386108E0FFF7D6FA02463B69D5
:10230C00D31A022B01D9032326E0064B1B6803F0DA
:10231C000073002BF0D11EE07B68DB69012B07D129
:10232C00012319E00010024000700040600042429E
:10233C000B4B5B68FB60FB6803F480327B681B6AA9
:10234C009A4206D1FB6803F470127B685B6A9A426E
:10235C0001D0012300E0002318461837BD4680BD8C
:10236C000010024080B584B000AF786039607B68A3
:10237C00002B01D10123D0E06A4B1B6803F007034B
:10238C003A689A4210D9674B1B6823F007026549DB
:10239C003B6813430B60634B1B6803F007033A68FD
:1023AC009A4201D00123B8E07B681B6803F002035A
:1023BC00002B20D07B681B6803F00403002B05D096
:1023CC00594B5B68584A43F4E06353607B681B6865
:1023DC0003F00803002B05D0534B5B68524A43F4BF
:1023EC0060535360504B5B6823F0F0027B689B6832
:1023FC004D4913434B607B681B6803F00103002BB2
:10240C0040D07B685B68012B07D1474B1B6803F4FA
:10241C000033002B15D101237FE07B685B68022B16
:10242C0007D1414B1B6803F00073002B09D101232A
:10243C0073E03D4B1B6803F00203002B01D1012319
:10244C006BE0394B5B6823F003027B685B683649B1
:10245C0013434B60FFF728FAF8600AE0FFF724FA01
:10246C000246FB68D31A41F28832934201D9032306
:10247C0053E02D4B5B6803F00C027B685B689B00A0
:10248C009A42EBD1274B1B6803F007033A689A4238
:10249C0010D2244B1B6823F0070222493B681343DC
:1024AC000B60204B1B6803F007033A689A4201D07B
:1024BC00012332E07B681B6803F00403002B08D077
:1024CC00194B5B6823F4E0627B68DB6816491343A5
:1024DC004B607B681B6803F00803002B09D0124B80
:1024EC005B6823F460527B681B69DB000E49134365
:1024FC004B6000F021F802460B4B5B681B0903F0A4
:10250C000F030A49CB5C22FA03F3094A1360094B07
:10251C001B681846FFF786F9002318461037BD468E
:10252C0080BD00BF0020024000100240682E000851
:10253C004C0000205000002080B487B000AF002376
:10254C00FB600023BB6000237B6100237B600023C6
:10255C003B611E4B5B68FB60FB6803F00C03042BB8
:10256C0002D0082B03D027E0194B3B6127E0FB6816
:10257C009B0C03F00F03174AD35C7B60FB6803F4DE
:10258C008033002B10D0114B5B685B0C03F0010304
:10259C00114AD35CBB607B680D4A03FB02F2BB683B
:1025AC00B2FBF3F37B6104E07B680C4A02FB03F3A0
:1025BC007B617B693B6102E0054B3B6100BF3B6982
:1025CC0018461C37BD4680BC704700BF0010024047
:1025DC0000127A00782E0008882E000800093D00B1
:1025EC0080B485B000AF78600A4B1B680A4AA2FB26
:1025FC0003235B0A7A6802FB03F3FB6000BFFB68F2
:10260C005A1EFA60002BF9D100BF00BF1437BD462B
:10261C0080BC70474C000020D34D621080B582B056
:10262C0000AF78607B68002B01D1012341E07B680F
:10263C0093F83D30DBB2002B06D17B68002283F887
:10264C003C207868FFF756F87B68022283F83D201F
:10265C007B681A687B6804331946104600F06EFAE2
:10266C007B68012283F846207B68012283F83E2098
:10267C007B68012283F83F207B68012283F840208D
:10268C007B68012283F841207B68012283F8422079
:10269C007B68012283F843207B68012283F8442065
:1026AC007B68012283F845207B68012283F83D205A
:1026BC00002318460837BD4680BD000080B485B0A5
:1026CC0000AF78607B6893F83D30DBB2012B01D012
:1026DC00012335E07B68022283F83D207B681B6870
:1026EC00DA687B681B6842F00102DA607B681B6861
:1026FC00164A934209D07B681B68B3F1804F04D013
:10270C007B681B68124A934211D17B681B689B68DB
:10271C0003F00703FB60FB68062B10D07B681B687B
:10272C001A687B681B6842F001021A6007E07B683C
:10273C001B681A687B681B6842F001021A60002350
:10274C0018461437BD4680BC704700BF002C0140B2
:10275C000004004080B582B000AF78607B681B68D5
:10276C001B6903F00203022B22D17B681B68DB6818
:10277C0003F00203022B1BD17B681B686FF0020273
:10278C001A617B6801221A777B681B689B6903F0CE
:10279C000303002B03D0786800F0B4F905E07868E7
:1027AC0000F0A7F9786800F0B6F97B6800221A7778
:1027BC007B681B681B6903F00403042B22D17B6824
:1027CC001B68DB6803F00403042B1BD17B681B68BC
:1027DC006FF004021A617B6802221A777B681B680F
:1027EC009B6903F44073002B03D0786800F08AF9DE
:1027FC0005E0786800F07DF9786800F08CF97B686A
:10280C0000221A777B681B681B6903F00803082BEE
:10281C0022D17B681B68DB6803F00803082B1BD1F3
:10282C007B681B686FF008021A617B6804221A77B8
:10283C007B681B68DB6903F00303002B03D078680B
:10284C0000F060F905E0786800F053F9786800F062
:10285C0062F97B6800221A777B681B681B6903F09E
:10286C001003102B22D17B681B68DB6803F010036C
:10287C00102B1BD17B681B686FF010021A617B68F0
:10288C0008221A777B681B68DB6903F44073002B02
:10289C0003D0786800F036F905E0786800F029F983
:1028AC00786800F038F97B6800221A777B681B681F
:1028BC001B6903F00103012B0ED17B681B68DB68DD
:1028CC0003F00103012B07D17B681B686FF0010239
:1028DC001A617868FEF782FE7B681B681B6903F03F
:1028EC008003802B0ED17B681B68DB6803F08003B0
:1028FC00802B07D17B681B686FF080021A617868A7
:10290C0000F06BFA7B681B681B6903F04003402BDB
:10291C000ED17B681B68DB6803F04003402B07D1AA
:10292C007B681B686FF040021A61786800F0FCF855
:10293C007B681B681B6903F02003202B0ED17B687E
:10294C001B68DB6803F02003202B07D17B681B6816
:10295C006FF020021A61786800F036FA00BF083771
:10296C00BD4680BD80B584B000AF7860396000236F
:10297C00FB737B6893F83C30012B01D10223B4E04C
:10298C007B68012283F83C207B68022283F83D207F
:10299C007B681B689B68BB60BB6823F07703BB60DC
:1029AC00BB6823F47F43BB607B681B68BA689A6082
:1029BC003B681B68B3F5005F3ED0B3F5005F00F2D7
:1029CC008780B3F5805F00F08680B3F5805F7FD899
:1029DC00702B1AD0702B7BD8602B50D0602B77D8F3
:1029EC00502B3CD0502B73D8402B58D0402B6FD849
:1029FC00302B64D0302B6BD8202B60D0202B67D899
:102A0C00002B5CD0102B5AD062E07B6818683B68B6
:102A1C0099683B685A683B68DB6800F05EF97B6834
:102A2C001B689B68BB60BB6843F07703BB607B682B
:102A3C001B68BA689A604FE07B6818683B689968B5
:102A4C003B685A683B68DB6800F047F97B681B6899
:102A5C009A687B681B6842F480429A603CE07B6811
:102A6C0018683B6859683B68DB681A4600F0BEF88A
:102A7C007B681B685021184600F015F92CE07B6828
:102A8C0018683B6859683B68DB681A4600F0DCF84C
:102A9C007B681B686021184600F005F91CE07B6818
:102AAC0018683B6859683B68DB681A4600F09EF86A
:102ABC007B681B684021184600F0F5F80CE07B6839
:102ACC001A683B681B681946104600F0ECF803E0E6
:102ADC000123FB7300E000BF7B68012283F83D20DB
:102AEC007B68002283F83C20FB7B18461037BD46E0
:102AFC0080BD80B483B000AF786000BF0C37BD469A
:102B0C0080BC704780B483B000AF786000BF0C37D6
:102B1C00BD4680BC704780B483B000AF786000BF06
:102B2C000C37BD4680BC704780B483B000AF786072
:102B3C0000BF0C37BD4680BC7047000080B485B028
:102B4C0000AF786039607B681B68FB607B68254A46
:102B5C00934207D07B68B3F1804F03D07B68224A45
:102B6C00934208D1FB6823F07003FB603B685B6801
:102B7C00FA681343FB607B681A4A934207D07B6860
:102B8C00B3F1804F03D07B68174A934208D1FB689E
:102B9C0023F44073FB603B68DB68FA681343FB600B
:102BAC00FB6823F080023B685B691343FB607B6826
:102BBC00FA681A603B689A687B68DA623B681A6844
:102BCC007B689A627B68074A934203D13B681A6917
:102BDC007B681A637B6801225A6100BF1437BD46BB
:102BEC0080BC7047002C01400004004080B487B0CA
:102BFC0000AFF860B9607A60FB681B6A7B61FB68A8
:102C0C001B6A23F00102FB681A62FB689B693B613B
:102C1C003B6923F0F0033B617B681B013A6913436A
:102C2C003B617B6923F00A037B617A69BB681343C0
:102C3C007B61FB683A699A61FB687A691A6200BF2A
:102C4C001C37BD4680BC704780B487B000AFF860BD
:102C5C00B9607A60FB681B6A7B61FB681B6A23F0B6
:102C6C001002FB681A62FB689B693B613B6923F4A9
:102C7C0070433B617B681B033A6913433B617B697F
:102C8C0023F0A0037B61BB681B017A6913437B6152
:102C9C00FB683A699A61FB687A691A6200BF1C3753
:102CAC00BD4680BC704780B485B000AF7860396099
:102CBC007B689B68FB60FB6823F07003FB603A68E1
:102CCC00FB68134343F00703FB607B68FA689A6068
:102CDC0000BF1437BD4680BC704780B487B000AFCE
:102CEC00F860B9607A603B60FB689B687B617B69CC
:102CFC0023F47F437B613B681A027B681A43BB68F1
:102D0C0013437A6913437B61FB687A699A6000BF4D
:102D1C001C37BD4680BC704780B485B000AF78606E
:102D2C0039607B6893F83C30012B01D1022341E0E0
:102D3C007B68012283F83C207B68022283F83D20CB
:102D4C007B681B685B68FB607B681B689B68BB606F
:102D5C00FB6823F07003FB603B681B68FA68134345
:102D6C00FB607B681B68FA685A607B681B68144AB6
:102D7C00934209D07B681B68B3F1804F04D07B6809
:102D8C001B68104A93420CD1BB6823F08003BB60D4
:102D9C003B685B68BA681343BB607B681B68BA68A6
:102DAC009A607B68012283F83D207B68002283F8BF
:102DBC003C20002318461437BD4680BC704700BF2A
:102DCC00002C01400004004080B483B000AF786058
:102DDC0000BF0C37BD4680BC704780B483B000AFD9
:102DEC00786000BF0C37BD4680BC70470346024478
:102DFC00934200D1704703F8011BF9E770B5002628
:102E0C000C4D0D4C641BA410A64209D100F01AF80D
:102E1C0000260A4D0A4C641BA410A64205D170BDB5
:102E2C0055F8043B98470136EEE755F8043B9847B4
:102E3C000136F2E78C2E00088C2E00088C2E000830
:102E4C00902E0008F8B500BFF8BC08BC9E46704731
:0C2E5C00F8B500BFF8BC08BC9E467047EB
:102E68000000000000000000010203040607080932
:102E780002030405060708090A0B0C0D0E0F1010B3
:042E88000102000043
:042E8C003101000808
:042E90000D01000828
:102E9400002000000040000000800000010000004D
:102EA400010000000100000001000000010000001A
:102EB400010000000100000001000000010000000A
:102EC400010000000100000001000000F401000006
:102ED4000500000003000000020000000024F400CC
:082EE4001000000001000000D5
:04000005080017B91F
:00000001FF
