:020000040800F2
:1000000000280020E118000871180008771800087F
:100010007D180008831800088918000800000000F7
:100020000000000000000000000000008F18000821
:100030009B18000800000000A7180008B31800086B
:100040002919000829190008291900082919000888
:100050002919000829190008291900082919000878
:100060002919000829190008291900082919000868
:100070002919000829190008291900082919000858
:100080002919000829190008291900082919000848
:100090002919000829190008291900082919000838
:1000A0002919000829190008291900082919000828
:1000B000C1180008291900080000000029190008CB
:1000C000291900080000000000000000291900089C
:1000D000000000002919000829190008000000008C
:1000E0002919000829190008291900080000000032
:1000F0000000000000000000000000000000000000
:0C01000000000000000000005FF808F1A3
:10010C0010B5054C237833B9044B13B10448AFF345
:10011C0000800123237010BD580000200000000057
:10012C00782F000808B5034B1BB103490348AFF304
:10013C00008008BD000000005C000020782F000843
:10014C0080B483B000AF7860094A7B6852F82330E2
:10015C00012B06D1064A7B68002142F823100123AB
:10016C0000E0002318460C37BD4680BC704700BF2A
:10017C007400002080B483B000AF7860044A7B68C0
:10018C00012142F8231000BF0C37BD4680BC7047DC
:10019C007400002080B582B000AF00237B6063E068
:1001AC00354A7B6852F8232034497B6841F8232078
:1001BC00334A7B6852F823202F497B6841F823206F
:1001CC00304A7B6852F823309BB219462E4801F016
:1001DC0093FE034619462A4A7B6842F82310264AA6
:1001EC007B6852F8232026497B6851F823309A42C9
:1001FC0037D1214A7B6852F8232020497B6851F87B
:10020C0023309A422DD11D4A7B6852F823201F4976
:10021C007B6851F823309A4215D0184A7B6852F803
:10022C0023201A497B6841F82320184A7B6852F82E
:10023C002330002B15D1164B4FF4FA721A607868E4
:10024C00FFF798FF0DE0124B1B68013B104A13603F
:10025C000F4B1B68002B04D10C4A7B68012142F820
:10026C0023107B6801337B607B68022B98DD00BF19
:10027C0000BF0837BD4680BD1800002024000020B8
:10028C000C0000200000002000080140300000207D
:10029C003C00002080B582B000AF0346FB71FB79B7
:1002AC00032B4BD801A252F823F000BFC90200085F
:1002BC00E9020008290300080903000801220821AB
:1002CC00214801F030FE012204211F4801F02BFED1
:1002DC00012202211C4801F026FE30E001220821F7
:1002EC00194801F020FE01220421174801F01BFEE1
:1002FC0000220221144801F016FE20E00122082100
:10030C00114801F010FE002204210F4801F00BFEF1
:10031C00012202210C4801F006FE10E00022082107
:10032C00094801F000FE01220421074801F0FBFD01
:10033C0001220221044801F0F6FD00E000BF00BFDD
:10034C000837BD4680BD00BF0008014080B582B0B3
:10035C0000AF0346FB71FB79032B4BD801A252F87B
:10036C0023F000BF81030008A1030008E10300088B
:10037C00C103000801224021214801F0D4FD0122D3
:10038C0020211F4801F0CFFD012210211C4801F053
:10039C00CAFD30E001224021194801F0C4FD0122C0
:1003AC002021174801F0BFFD00221021144801F054
:1003BC00BAFD20E001224021114801F0B4FD0022D9
:1003CC0020210F4801F0AFFD012210210C4801F053
:1003DC00AAFD10E000224021094801F0A4FD0122F1
:1003EC002021074801F09FFD01221021044801F053
:1003FC009AFD00E000BF00BF0837BD4680BD00BFBE
:10040C000008014080B582B000AF0346FB71FB7958
:10041C00032B0ED0032B1EDC012B13D0022B1AD175
:10042C0008210F4801F097FD40210D4801F093FD84
:10043C0012E004210A4801F08EFD2021084801F049
:10044C008AFD09E00221064801F085FD10210448CF
:10045C0001F081FD00E000BF00BF0837BD4680BD44
:10046C000008014080B582B000AF78607B68092B32
:10047C0000F2808101A252F823F000BFB104000801
:10048C00F90400084105000889050008D105000899
:10049C001906000861060008A9060008F106000804
:1004AC003907000800220121B54801F03CFD00226B
:1004BC000221B34801F037FD00220421B04801F0BD
:1004CC0032FD00220821AE4801F02DFD0022102142
:1004DC00AB4801F028FD00222021A94801F023FDA2
:1004EC0001224021A64801F01EFD44E10122012118
:1004FC00A34801F018FD00220221A14801F013FDD0
:10050C00002204219E4801F00EFD012208219C4886
:10051C0001F009FD01221021994801F004FD01228E
:10052C002021974801F0FFFC01224021944801F062
:10053C00FAFC20E100220121914801F0F4FC002298
:10054C0002218F4801F0EFFC012204218C4801F0BC
:10055C00EAFC002208218A4801F0E5FC0022102167
:10056C00874801F0E0FC01222021854801F0DBFCEA
:10057C0000224021824801F0D6FCFCE0002201213F
:10058C007F4801F0D0FC002202217D4801F0CBFC19
:10059C00002204217A4801F0C6FC00220821784888
:1005AC0001F0C1FC01221021754801F0BCFC0122B4
:1005BC002021734801F0B7FC00224021704801F063
:1005CC00B2FCD8E0012201216D4801F0ACFC002204
:1005DC0002216B4801F0A7FC00220421684801F0BD
:1005EC00A2FC01220821664801F09DFC0122102189
:1005FC00634801F098FC00222021614801F093FC33
:10060C00002240215E4801F08EFCB4E00022012162
:10061C005B4801F088FC01220221594801F083FC5F
:10062C0000220421564801F07EFC00220821544887
:10063C0001F079FC01221021514801F074FC0022D8
:10064C0020214F4801F06FFC002240214C4801F062
:10065C006AFC90E000220121494801F064FC01226F
:10066C000221474801F05FFC00220421444801F0BC
:10067C005AFC00220821424801F055FC00221021AE
:10068C003F4801F050FC002220213D4801F04BFC7A
:10069C00002240213A4801F046FC6CE00022012186
:1006AC00374801F040FC00220221354801F03BFCA8
:1006BC0000220421324801F036FC01220821304886
:1006CC0001F031FC012210212D4801F02CFC0122FB
:1006DC0020212B4801F027FC01224021284801F061
:1006EC0022FC48E000220121254801F01CFC0022DC
:1006FC000221234801F017FC00220421204801F0BC
:10070C0012FC002208211E4801F00DFC00221021D1
:10071C001B4801F008FC00222021194801F003FCC1
:10072C0000224021164801F0FEFB24E000220121AA
:10073C00134801F0F8FB00220221114801F0F3FBF1
:10074C00002204210E4801F0EEFB002208210C4887
:10075C0001F0E9FB01221021094801F0E4FB002221
:10076C002021074801F0DFFB00224021044801F062
:10077C00DAFB00E000BF00BF0837BD4680BD00BFFC
:10078C00000C014080B582B000AF78607B68092B0B
:10079C0000F2BC8101A252F823F000BFD10700087F
:1007AC002508000879080008CD0800082109000870
:1007BC0075090008C90900081D0A0008710A00081B
:1007CC00C50A000800228021D34801F0ACFB0022AE
:1007DC004FF48071D04801F0A6FB00224FF4007159
:1007EC00CD4801F0A0FB00224FF48061CA4801F013
:1007FC009AFB00224FF40061C74801F094FB0022E1
:10080C004FF48051C44801F08EFB01224FF400518B
:10081C00C14801F088FB7AE101228021BE4801F039
:10082C0082FB00224FF48071BB4801F07CFB00225C
:10083C004FF40071B84801F076FB01224FF480614F
:10084C00B54801F070FB01224FF40061B24801F091
:10085C006AFB01224FF48051AF4801F064FB012286
:10086C004FF40051AC4801F05EFB50E100228021B6
:10087C00A94801F058FB00224FF48071A64801F002
:10088C0052FB01224FF40071A34801F04CFB0022F3
:10089C004FF48061A04801F046FB00224FF4006148
:1008AC009D4801F040FB01224FF480519A4801F021
:1008BC003AFB00224FF40051974801F034FB26E13B
:1008CC0000228021944801F02EFB00224FF480710D
:1008DC00914801F028FB00224FF400718E4801F082
:1008EC0022FB00224FF480618B4801F01CFB01229B
:1008FC004FF40061884801F016FB01224FF480513F
:10090C00854801F010FB00224FF40051824801F0A1
:10091C000AFBFCE0012280217F4801F004FB00224D
:10092C004FF480717C4801F0FEFA00224FF4007104
:10093C00794801F0F8FA01224FF48061764801F011
:10094C00F2FA01224FF40061734801F0ECFA002234
:10095C004FF48051704801F0E6FA00224FF4005138
:10096C006D4801F0E0FAD2E0002280216A4801F0E3
:10097C00DAFA01224FF48071674801F0D4FA0022B0
:10098C004FF40071644801F0CEFA00224FF48061FC
:10099C00614801F0C8FA01224FF400615E4801F091
:1009AC00C2FA00224FF480515B4801F0BCFA0022DD
:1009BC004FF40051584801F0B6FAA8E0002280210B
:1009CC00554801F0B0FA01224FF48071524801F001
:1009DC00AAFA00224FF400714F4801F0A4FA002249
:1009EC004FF480614C4801F09EFA00224FF40061F4
:1009FC00494801F098FA00224FF48051464801F022
:100A0C0092FA00224FF40051434801F08CFA7EE038
:100A1C0000228021404801F086FA00224FF48071B8
:100A2C003D4801F080FA00224FF400713A4801F081
:100A3C007AFA01224FF48061374801F074FA0122EE
:100A4C004FF40061344801F06EFA01224FF48051EA
:100A5C00314801F068FA01224FF400512E4801F0A0
:100A6C0062FA54E0002280212B4801F05CFA00224B
:100A7C004FF48071284801F056FA00224FF40071AF
:100A8C00254801F050FA00224FF48061224801F011
:100A9C004AFA00224FF400611F4801F044FA002288
:100AAC004FF480511C4801F03EFA00224FF40051E3
:100ABC00194801F038FA2AE000228021164801F08A
:100ACC0032FA00224FF48071134801F02CFA002204
:100ADC004FF40071104801F026FA00224FF48061A7
:100AEC000D4801F020FA01224FF400610A4801F090
:100AFC001AFA00224FF48051074801F014FA002230
:100B0C004FF40051044801F00EFA00E000BF00BFA2
:100B1C000837BD4680BD00BF000C014080B500AF5A
:100B2C0000228021054801F0FEF901224FF480716A
:100B3C00024801F0F8F900BF80BD00BF0008014079
:100B4C0080B500AF01228021054801F0ECF90022AC
:100B5C004FF48071024801F0E6F900BF80BD00BF80
:100B6C000008014080B500AF00224FF40071054829
:100B7C0001F0D9F901224FF48061024801F0D3F958
:100B8C0000BF80BD0008014080B500AF01224FF4CA
:100B9C000071054801F0C7F900224FF4806102484A
:100BAC0001F0C1F900BF80BD0008014080B500AF65
:100BBC0000224FF40061054801F0B5F901224FF411
:100BCC008051024801F0AFF900BF80BD0008014020
:100BDC0080B500AF01224FF40061054801F0A3F984
:100BEC0000224FF48051024801F09DF900BF80BDF6
:100BFC000008014080B582B000AF78603960FFF723
:100C0C008DFF7B680C4A82FB03129210DB17D31A00
:100C1C001846FFF727FCFFF7A5FF3B68064A82FB47
:100C2C0003129210DB17D31A1846FFF7ABFD00BF67
:100C3C000837BD4680BD00BF6766666680B582B06A
:100C4C0000AF78603960FFF77BFF7A68114B83FB4C
:100C5C0002139910D317C91A0B469B000B445B0067
:100C6C00D11A0846FFF7FEFBFFF78EFF3A68094BD7
:100C7C0083FB02139910D317C91A0B469B000B4424
:100C8C005B00D11A0846FFF77DFD00BF0837BD4653
:100C9C0080BD00BF6766666680B582B000AF7860C5
:100CAC00FFF784FF7B68064A82FB03129210DB1766
:100CBC00D31A1846FFF7D6FB00BF0837BD4680BDD8
:100CCC006766666680B582B000AF7860FFF780FF1C
:100CDC007A68094B83FB02139910D317C91A0B4678
:100CEC009B000B445B00D11A0846FFF74BFD00BF7D
:100CFC000837BD4680BD00BF6766666680B500AF2D
:100D0C000020FFF71DFA0346012B08D101224FF4F6
:100D1C00FC51994801F007F9984B02221A70974B35
:100D2C001B78012B40F02581954B1B78032B67D842
:100D3C0001A252F823F000BF550D0008650D000804
:100D4C009D0D0008D50D00088D4B01221A706421F1
:100D5C00002000F001FD5AE00120FFF79BFA894BBF
:100D6C001B68012B4ED1884B1B68013B864A1360D4
:100D7C00854B1B68002B06D1844B1B68824A136081
:100D8C007F4B02221A706421002000F0E5FC39E050
:100D9C000220FFF77FFA7B4B1B68012B34D17A4B77
:100DAC001B68013B784A1360774B1B68002B06D1FC
:100DBC00774B1B68744A1360714B03221A706421C1
:100DCC00002000F0C9FC1FE00320FFF763FA6D4B15
:100DDC001B68012B1AD16C4B1B68013B6A4A1360D0
:100DEC00694B1B68002B06D16A4B1B68664A136063
:100DFC00634B01221A706421002000F0ADFC05E069
:100E0C0000BF04E000BF02E000BF00E000BF624B87
:100E1C001B78032B66D801A252F823F0390E000878
:100E2C00490E0008810E0008B90E00085A4B022228
:100E3C001A706421012000F08FFC5AE00120FFF7AA
:100E4C0085FA504B5B68012B4ED1544B1B68013B10
:100E5C00524A1360514B1B68002B06D14B4B1B683D
:100E6C004E4A13604C4B02221A706421012000F090
:100E7C0073FC39E00220FFF769FA424B5B68012BE7
:100E8C0034D1464B1B68013B444A1360434B1B68EF
:100E9C00002B06D13E4B1B68404A13603E4B03228D
:100EAC001A706421012000F057FC1FE00320FFF7AB
:100EBC004DFA344B5B68012B1AD1384B1B68013B44
:100ECC00364A1360354B1B68002B06D1314B1B681F
:100EDC00324A1360304B01221A706421012000F059
:100EEC003BFC05E000BF04E000BF02E000BF00E0F7
:100EFC0000BF2B4B1B78022B22D0022B34DC002B97
:100F0C0002D0012B08D02FE0254B01221A700121B1
:100F1C00022000F021FC2CE01A4B9B68012B25D100
:100F2C00194B1B681D4A126811461846FFF762FEE2
:100F3C001B4B02221A703221022000F00DFC15E02E
:100F4C00104B9B68012B13D10F4B1B68134A126873
:100F5C0011461846FFF772FE114B01221A7032210E
:100F6C00022000F0F9FB03E000BF02E000BF00E04C
:100F7C0000BF00BF80BD00BF000801408000002002
:100F8C008A0000200801002090000020440000206E
:100F9C0048000020400000208B000020940000201E
:100FAC008C00002080B500AF4E4B1B78002B02D07C
:100FBC00012B0DD018E001227E214B4800F0B3FF2D
:100FCC00484B01221A701921032000F0C5FB0BE0DD
:100FDC00464BDB68012B06D10120FFF713FA1921D0
:100FEC00032000F0B9FB00BF414B1B78002B02D053
:100FFC00012B14D039E00120FFF7A2F80346012B96
:10100C0030D13B4B01221A703A4B1B680133394AE1
:10101C001360394B1B680133374A136022E00120FF
:10102C00FFF78EF80346012B10D1324B1B680133AE
:10103C00304A1360304B1B6801332F4A13602D4B21
:10104C001B68622B02DD2B4B01221A600220FFF77A
:10105C0077F80346012B07D1284B01221A7000F0B8
:10106C00EFF901E000BF00E000BF254B1B78022B1D
:10107C001FD0022B2EDC002B02D0012B08D029E034
:10108C001F4B01221A701921042000F065FB26E089
:10109C00164B1B69012B1FD1164B1B681846FFF70B
:1010AC00FBFD174B02221A701921042000F054FB8F
:1010BC0012E00E4B1B69012B10D10E4B1B6818460E
:1010CC00FFF700FE1921042000F046FB0C4B012217
:1010DC001A7003E000BF02E000BF00E000BF00BFD9
:1010EC0080BD00BF810000200008014008010020E5
:1010FC0083000020400000204400002080000020DD
:10110C008200002080B500AF4E4B1B78002B02D024
:10111C00012B0DD018E001227E214B4800F003FF7B
:10112C00484B01221A701921052000F015FB0BE029
:10113C00464B5B69012B06D10320FFF763F919219C
:10114C00052000F009FB00BF414B1B78002B02D09F
:10115C00012B14D039E00120FEF7F2FF0346012BDE
:10116C0030D13B4B01221A703A4B1B680133394A80
:10117C001360394B1B680133374A136022E001209E
:10118C00FEF7DEFF0346012B10D1324B1B680133F7
:10119C00304A1360304B1B6801332F4A13602D4BC0
:1011AC001B68622B02DD2B4B01221A600220FEF71A
:1011BC00C7FF0346012B07D1284B01221A7000F000
:1011CC003FF901E000BF00E000BF254B1B78022B6C
:1011DC001FD0022B2EDC002B02D0012B08D029E0D3
:1011EC001F4B01221A701921062000F0B5FA26E0D7
:1011FC00164B9B69012B1FD1164B1B681846FFF72A
:10120C004BFD174B02221A701921062000F0A4FA8C
:10121C0012E00E4B9B69012B10D10E4B1B6818462C
:10122C00FFF750FD1921062000F096FA0C4B012215
:10123C001A7003E000BF02E000BF00E000BF00BF77
:10124C0080BD00BF84000020000801400801002080
:10125C008600002048000020400000208000002074
:10126C008500002080B500AF4E4B1B78002B02D0C0
:10127C00012B0DD018E001227E214B4800F053FECB
:10128C00484B01221A701921072000F065FA0BE077
:10129C00464BDB69012B06D10220FFF7B3F819216D
:1012AC00072000F059FA00BF414B1B78002B02D0ED
:1012BC00012B14D039E00120FEF742FF0346012B2D
:1012CC0030D13B4B01221A703A4B1B680133394A1F
:1012DC001360394B1B680133374A136022E001203D
:1012EC00FEF72EFF0346012B10D1324B1B68013346
:1012FC00304A1360304B1B6801332F4A13602D4B5F
:10130C001B68622B02DD2B4B01221A600220FEF7B8
:10131C0017FF0346012B07D1284B01221A7000F04E
:10132C008FF801E000BF00E000BF254B1B78022BBB
:10133C001FD0022B2EDC002B02D0012B08D029E071
:10134C001F4B01221A701921082000F005FA26E023
:10135C00164B1B6A012B1FD1164B1B681846FFF747
:10136C009BFC174B02221A701921082000F0F4F98B
:10137C0012E00E4B1B6A012B10D10E4B1B6818464A
:10138C00FFF7A0FC1921082000F0E6F90C4B012214
:10139C001A7003E000BF02E000BF00E000BF00BF16
:1013AC0080BD00BF8700002000080140080100201C
:1013BC008900002044000020400000208000002014
:1013CC008800002080B500AF1C4B1B78042B1ED06E
:1013DC00042B2ADC022B02D0032B0CD025E0FFF7C8
:1013EC00E1FD0020FEF7ACFE0346012B1FD1134B91
:1013FC0003221A701BE0FFF785FE0020FEF7A0FE0B
:10140C000346012B15D10D4B04221A7011E0FFF786
:10141C0029FF0020FEF794FE0346012B0BD1074B4E
:10142C0001221A7000F00CF805E000BF04E000BFC8
:10143C0002E000BF00E000BF00BF80BD80000020C4
:10144C0080B400AF194B01221A70194B00221A708C
:10145C00184B00221A70184B00221A70174B0022DE
:10146C001A70174B00221A70164B00221A70164B6A
:10147C0000221A70154B00221A70154B00221A709C
:10148C00144B00221A70144B00221A70134B0022BA
:10149C001A70134B1B68134A1360134B1B68134AC7
:1014AC00136000BFBD4680BC704700BF80000020A9
:1014BC008100002082000020830000208400002096
:1014CC008500002086000020870000208800002076
:1014DC00890000208A0000208B0000208C00002056
:1014EC0040000020900000204400002094000020C8
:1014FC0080B500AF00F014FA00F014F800F09AF880
:10150C0000F04CF8064801F06DF9FFF799FF002048
:10151C00FEF7C0FEFFF7F2FBFFF754FFFAE700BF40
:10152C009800002080B590B000AF07F11803282276
:10153C000021184601F0EEFC3B1D00221A605A6097
:10154C009A60DA601A610223BB610123BB6210232B
:10155C00FB6200237B6307F11803184600F014FDAF
:10156C000346002B01D000F0F2F80F237B60002320
:10157C00BB600023FB6000233B6100237B613B1DB0
:10158C000021184600F082FF0346002B01D000F02A
:10159C00DEF800BF4037BD4680BD000080B586B088
:1015AC0000AF07F1080300221A605A609A60DA60F3
:1015BC003B4600221A605A601D4B4FF080421A6065
:1015CC001B4B41F63F725A60194B00229A60184B24
:1015DC000A22DA60164B00221A61154B00229A611E
:1015EC00134801F0AFF80346002B01D000F0AFF820
:1015FC004FF48053BB6007F1080319460C4801F007
:10160C0045FA0346002B01D000F0A1F800233B6003
:10161C0000237B603B461946054801F011FC03464C
:10162C00002B01D000F093F800BF1837BD4680BDE9
:10163C009800002080B586B000AF07F108030022A7
:10164C001A605A609A60DA602B4B9B692A4A43F005
:10165C0004039361284B9B6903F004037B607B6854
:10166C00254B9B69244A43F008039361224B9B69E9
:10167C0003F008033B603B6800227E211F4800F00A
:10168C0052FC01224FF4FC511C4800F04CFC00228F
:10169C0043F6FF711A4800F046FC41F6FE73BB603E
:1016AC000123FB6000233B6102237B6107F10803EC
:1016BC001946124800F0A4FA43F6FF73BB600123ED
:1016CC00FB6000233B6102237B6107F10803194691
:1016DC000B4800F095FA4FF46043BB600023FB60AD
:1016EC0001233B6107F108031946044800F088FA0E
:1016FC0000BF1837BD4680BD0010024000080140F5
:10170C00000C014080B582B000AF7860002000F082
:10171C003BF8012000F038F8022000F035F80320E7
:10172C0000F032F8042000F02FF8052000F02CF81F
:10173C00062000F029F8072000F026F8082000F019
:10174C0023F8FEF727FD00BF0837BD4680BD80B4E7
:10175C0000AF72B600BFFEE780B483B000AF786014
:10176C00396007497B683A6841F82320054A7B6851
:10177C00002142F8231000BF0C37BD4680BC7047D7
:10178C00E00000200801002080B483B000AF786036
:10179C000F4A7B6852F82330002B13DD0C4A7B6810
:1017AC0052F823305A1E0A497B6841F82320084A14
:1017BC007B6852F82330002B04DC064A7B6801213D
:1017CC0042F8231000BF0C37BD4680BC704700BFE9
:1017DC00E00000200801002080B483B000AF0E4B65
:1017EC009B690D4A43F0010393610B4B9B6903F01A
:1017FC0001037B607B68084BDB69074A43F080532D
:10180C00D361054BDB6903F080533B603B6800BF41
:10181C000C37BD4680BC70470010024080B584B0C8
:10182C0000AF78607B681B68B3F1804F13D10C4B11
:10183C00DB690B4A43F00103D361094BDB6903F00D
:10184C000103FB60FB68002200211C2000F0A1F9C1
:10185C001C2000F0BAF900BF1037BD4680BD00BF98
:10186C000010024080B400AFFEE780B400AFFEE78A
:10187C0080B400AFFEE780B400AFFEE780B400AFE9
:10188C00FEE780B400AF00BFBD4680BC704780B49B
:10189C0000AF00BFBD4680BC704780B400AF00BF36
:1018AC00BD4680BC704780B500AF00F07FF800BF2C
:1018BC0080BD000080B500AF024800F0DFFF00BF24
:1018CC0080BD00BF9800002080B400AF00BFBD46B3
:1018DC0080BC7047FFF7F8FF0B480C490C4A0023FB
:1018EC0002E0D458C4500433C4188C42F9D3094ACA
:1018FC00094C002301E013600432A242FBD301F037
:10190C0011FBFFF7F5FD7047000000205800002088
:10191C00BC2F00085800002034010020FEE7000016
:10192C0080B500AF084B1B68074A43F010031360E7
:10193C00032000F023F90F2000F008F8FFF74CFF0C
:10194C000023184680BD00BF0020024080B582B045
:10195C0000AF7860124B1A68124B1B7819464FF483
:10196C007A73B3FBF1F3B2FBF3F3184600F03BF9D7
:10197C000346002B01D001230EE07B680F2B0AD805
:10198C00002279684FF0FF3000F003F9064A7B68BB
:10199C001360002300E0012318460837BD4680BDC4
:1019AC004C000020540000205000002080B400AFF8
:1019BC00054B1B781A46054B1B681344034A1360EE
:1019CC0000BFBD4680BC7047540000203001002091
:1019DC0080B400AF024B1B681846BD4680BC7047F4
:1019EC003001002080B485B000AF78607B6803F0D4
:1019FC000703FB600C4BDB68BB60BA684FF6FF0358
:101A0C001340BB60FB681A02BB68134343F0BF630F
:101A1C0043F40033BB60044ABB68D36000BF143787
:101A2C00BD4680BC704700BF00ED00E080B400AF45
:101A3C00044BDB681B0A03F007031846BD4680BC49
:101A4C00704700BF00ED00E080B483B000AF0346E8
:101A5C00FB7197F90730002B0BDBFB7903F01F02AE
:101A6C00064997F907305B09012000FA02F241F8A8
:101A7C00232000BF0C37BD4680BC704700E100E05E
:101A8C0080B483B000AF03463960FB7197F907301F
:101A9C00002B0ADB3B68DAB20C4997F907301201CC
:101AAC00D2B20B4483F800230AE03B68DAB208494F
:101ABC00FB7903F00F03043B1201D2B20B441A76EC
:101ACC0000BF0C37BD4680BC704700BF00E100E092
:101ADC0000ED00E080B489B000AFF860B9607A60C6
:101AEC00FB6803F00703FB61FB69C3F10703042BDD
:101AFC0028BF0423BB61FB690433062B02D9FB69A5
:101B0C00033B00E000237B614FF0FF32BB6902FA1C
:101B1C0003F3DA43BB681A407B699A404FF0FF31FC
:101B2C007B6901FA03F3D9437B680B4013431846D6
:101B3C002437BD4680BC704780B582B000AF78605A
:101B4C007B68013BB3F1807F01D301230FE00A4A8C
:101B5C007B68013B53600F214FF0FF30FFF790FF84
:101B6C00054B00229A60044B07221A60002318468A
:101B7C000837BD4680BD00BF10E000E080B582B0E4
:101B8C0000AF78607868FFF72DFF00BF0837BD46BF
:101B9C0080BD80B586B000AF0346B9607A60FB7338
:101BAC0000237B61FFF742FF78617A68B968786936
:101BBC00FFF790FF024697F90F3011461846FFF7D2
:101BCC005FFF00BF1837BD4680BD80B582B000AF47
:101BDC000346FB7197F907301846FFF735FF00BF36
:101BEC000837BD4680BD80B582B000AF786078689C
:101BFC00FFF7A2FF034618460837BD4680BD00001C
:101C0C0080B48BB000AF7860396000237B62002316
:101C1C003B6261E101227B6A02FA03F3FB613B68E0
:101C2C001B68FA691340BB61BA69FB699A4240F0C0
:101C3C0050813B685B68974A93425ED0954A9342C9
:101C4C0075D8954A934258D0934A93426FD8934A89
:101C5C00934252D0914A934269D8914A93424CD0C4
:101C6C008F4A934263D88F4A934246D08D4A93420F
:101C7C005DD8122B2AD8122B59D801A252F823F076
:101C8C00071D0008E11C0008F31C0008351D0008A6
:101C9C003B1D00083B1D00083B1D00083B1D0008B8
:101CAC003B1D00083B1D00083B1D00083B1D0008A8
:101CBC003B1D00083B1D00083B1D00083B1D000898
:101CCC003B1D0008E91C0008FD1C0008764A9342E5
:101CDC0013D02CE03B68DB683B6229E03B68DB6897
:101CEC0004333B6224E03B68DB6808333B621FE053
:101CFC003B68DB680C333B621AE03B689B68002B4B
:101D0C0002D104233B6213E03B689B68012B05D195
:101D1C0008233B627B68FA691A6109E008233B627D
:101D2C007B68FA695A6103E000233B6200E000BF64
:101D3C00BB69FF2B01D87B6801E07B6804337B61B6
:101D4C00BB69FF2B02D87B6A9B0002E07B6A083BD5
:101D5C009B003B617B691A680F213B6901FA03F315
:101D6C00DB431A40396A3B6901FA03F31A437B6976
:101D7C001A603B685B6803F08053002B00F0A9806D
:101D8C004A4B9B69494A43F001039361474B9B695A
:101D9C0003F00103BB60BB68454A7B6A9B080233B6
:101DAC0052F82330FB607B6A03F003039B000F2285
:101DBC0002FA03F3DB43FA681340FB607B683D4A8D
:101DCC0093420DD07B683C4A934207D07B683B4AD8
:101DDC00934201D1022304E0032302E0012300E03B
:101DEC0000237A6A02F0030292009340FA681343CC
:101DFC00FB602F497B6A9B080233FA6841F8232069
:101E0C003B685B6803F48013002B06D02C4B9A685C
:101E1C002B49BB6913438B6006E0294B9A68BB695D
:101E2C00DB43274913408B603B685B6803F400136A
:101E3C00002B06D0224BDA682149BB691343CB60D7
:101E4C0006E01F4BDA68BB69DB431D491340CB60CE
:101E5C003B685B6803F40033002B06D0184B5A68C0
:101E6C001749BB6913434B6006E0154B5A68BB69B5
:101E7C00DB43134913404B603B685B6803F48033CE
:101E8C00002B1FD00E4B1A680D49BB6913430B6016
:101E9C001FE000BF000032100000311000002210C3
:101EAC000000211000001210000011100010024060
:101EBC000000014000080140000C014000100140EE
:101ECC00000401400B4B1A68BB69DB430949134002
:101EDC000B607B6A01337B623B681A687B6A22FA6F
:101EEC0003F3002B7FF496AE00BF00BF2C37BD462A
:101EFC0080BC70470004014080B485B000AF7860AE
:101F0C000B467B807B689A687B881340002B02D041
:101F1C000123FB7301E00023FB73FB7B1846143792
:101F2C00BD4680BC704780B483B000AF78600B4670
:101F3C007B8013467B707B78002B03D07A887B6880
:101F4C001A6103E07B881A047B681A6100BF0C37A6
:101F5C00BD4680BC704780B485B000AF78600B463E
:101F6C007B807B68DB68FB607A88FB6813401A0413
:101F7C00FB68D9437B880B401A437B681A6100BF0E
:101F8C001437BD4680BC704780B586B000AF786012
:101F9C007B68002B01D1012372E27B681B6803F084
:101FAC000103002B00F08780924B5B6803F00C035D
:101FBC00042B0CD08F4B5B6803F00C03082B12D155
:101FCC008C4B5B6803F48033B3F5803F0BD1894BAA
:101FDC001B6803F40033002B6CD07B685B68002B10
:101FEC0068D101234CE27B685B68B3F5803F06D176
:101FFC00804B1B687F4A43F4803313602EE07B6870
:10200C005B68002B0CD17B4B1B687A4A23F4803322
:10201C001360784B1B68774A23F4802313601DE010
:10202C007B685B68B3F5A02F0CD1724B1B68714AAF
:10203C0043F4802313606F4B1B686E4A43F4803368
:10204C0013600BE06B4B1B686A4A23F480331360FC
:10205C00684B1B68674A23F4802313607B685B68BA
:10206C00002B13D0FFF7B4FC386108E0FFF7B0FC8D
:10207C0002463B69D31A642B01D9032300E25D4B62
:10208C001B6803F40033002BF0D014E0FFF7A0FC26
:10209C00386108E0FFF79CFC02463B69D31A642BBD
:1020AC0001D90323ECE1534B1B6803F40033002BE1
:1020BC00F0D100E000BF7B681B6803F00203002B2B
:1020CC0063D04C4B5B6803F00C03002B0BD0494BDB
:1020DC005B6803F00C03082B1CD1464B5B6803F4C4
:1020EC008033002B16D1434B1B6803F00203002BEB
:1020FC0005D07B681B69012B01D00123C0E13D4B4E
:10210C001B6823F0F8027B685B69DB0039491343D9
:10211C000B603AE07B681B69002B20D0364B012208
:10212C001A60FFF755FC386108E0FFF751FC0246D6
:10213C003B69D31A022B01D90323A1E12D4B1B6858
:10214C0003F00203002BF0D02A4B1B6823F0F8029B
:10215C007B685B69DB00274913430B6015E0264B5A
:10216C0000221A60FFF734FC386108E0FFF730FCFE
:10217C0002463B69D31A022B01D9032380E11D4B84
:10218C001B6803F00203002BF0D17B681B6803F083
:10219C000803002B3AD07B689B69002B19D0174B96
:1021AC0001221A60FFF714FC386108E0FFF710FCFD
:1021BC0002463B69D31A022B01D9032360E10D4B74
:1021CC005B6A03F00203002BF0D0012000F09CFAB4
:1021DC001CE00A4B00221A60FFF7FAFB38610FE093
:1021EC00FFF7F6FB02463B69D31A022B08D90323EF
:1021FC0046E100BF0010024000004242800442420F
:10220C00924B5B6A03F00203002BE9D17B681B68DD
:10221C0003F00403002B00F0A6800023FB758B4B0E
:10222C00DB6903F08053002B0DD1884BDB69874AA7
:10223C0043F08053D361854BDB6903F08053BB6063
:10224C00BB680123FB75824B1B6803F48073002B66
:10225C0018D17F4B1B687E4A43F480731360FFF7E1
:10226C00B7FB386108E0FFF7B3FB02463B69D31AB2
:10227C00642B01D9032303E1754B1B6803F48073B2
:10228C00002BF0D07B68DB68012B06D16F4B1B6AEF
:10229C006E4A43F0010313622DE07B68DB68002B70
:1022AC000CD16A4B1B6A694A23F001031362674B1A
:1022BC001B6A664A23F0040313621CE07B68DB682C
:1022CC00052B0CD1614B1B6A604A43F0040313626B
:1022DC005E4B1B6A5D4A43F0010313620BE05B4BE0
:1022EC001B6A5A4A23F001031362584B1B6A574A64
:1022FC0023F0040313627B68DB68002B15D0FFF717
:10230C0067FB38610AE0FFF763FB02463B69D31AAF
:10231C0041F28832934201D90323B1E04B4B1B6A43
:10232C0003F00203002BEED014E0FFF751FB3861F1
:10233C000AE0FFF74DFB02463B69D31A41F28832A3
:10234C00934201D903239BE0404B1B6A03F0020329
:10235C00002BEED1FB7D012B05D13C4BDB693B4ABD
:10236C0023F08053D3617B68DB69002B00F08780FE
:10237C00364B5B6803F00C03082B61D07B68DB6980
:10238C00022B46D1334B00221A60FFF721FB386138
:10239C0008E0FFF71DFB02463B69D31A022B01D95B
:1023AC0003236DE0294B1B6803F00073002BF0D165
:1023BC007B681B6AB3F5803F08D1244B5B6823F420
:1023CC0000327B689B68214913434B601F4B5B6851
:1023DC0023F474127B68196A7B685B6A0B431B4994
:1023EC0013434B601B4B01221A60FFF7F1FA386163
:1023FC0008E0FFF7EDFA02463B69D31A022B01D92C
:10240C0003233DE0114B1B6803F00073002BF0D04D
:10241C0035E0104B00221A60FFF7DAFA386108E059
:10242C00FFF7D6FA02463B69D31A022B01D90323D4
:10243C0026E0064B1B6803F00073002BF0D11EE066
:10244C007B68DB69012B07D1012319E000100240E6
:10245C0000700040600042420B4B5B68FB60FB6805
:10246C0003F480327B681B6A9A4206D1FB6803F442
:10247C0070127B685B6A9A4201D0012300E0002352
:10248C0018461837BD4680BD0010024080B584B098
:10249C0000AF786039607B68002B01D10123D0E05C
:1024AC006A4B1B6803F007033A689A4210D9674BD2
:1024BC001B6823F0070265493B6813430B60634BB1
:1024CC001B6803F007033A689A4201D00123B8E075
:1024DC007B681B6803F00203002B20D07B681B6811
:1024EC0003F00403002B05D0594B5B68584A43F4A6
:1024FC00E06353607B681B6803F00803002B05D076
:10250C00534B5B68524A43F460535360504B5B68C7
:10251C0023F0F0027B689B684D4913434B607B684A
:10252C001B6803F00103002B40D07B685B68012B18
:10253C0007D1474B1B6803F40033002B15D1012343
:10254C007FE07B685B68022B07D1414B1B6803F073
:10255C000073002B09D1012373E03D4B1B6803F082
:10256C000203002B01D101236BE0394B5B6823F094
:10257C0003027B685B68364913434B60FFF728FA0C
:10258C00F8600AE0FFF724FA0246FB68D31A41F21E
:10259C008832934201D9032353E02D4B5B6803F03F
:1025AC000C027B685B689B009A42EBD1274B1B6843
:1025BC0003F007033A689A4210D2244B1B6823F0AD
:1025CC00070222493B6813430B60204B1B6803F046
:1025DC0007033A689A4201D0012332E07B681B68FA
:1025EC0003F00403002B08D0194B5B6823F4E06262
:1025FC007B68DB68164913434B607B681B6803F0F0
:10260C000803002B09D0124B5B6823F460527B68E3
:10261C001B69DB000E4913434B6000F021F80246A6
:10262C000B4B5B681B0903F00F030A49CB5C22FAC6
:10263C0003F3094A1360094B1B681846FFF786F928
:10264C00002318461037BD4680BD00BF0020024055
:10265C0000100240902F00084C0000205000002079
:10266C0080B487B000AF0023FB600023BB60002365
:10267C007B6100237B6000233B611E4B5B68FB602E
:10268C00FB6803F00C03042B02D0082B03D027E0CB
:10269C00194B3B6127E0FB689B0C03F00F03174AB7
:1026AC00D35C7B60FB6803F48033002B10D0114BA0
:1026BC005B685B0C03F00103114AD35CBB607B6865
:1026CC000D4A03FB02F2BB68B2FBF3F37B6104E03F
:1026DC007B680C4A02FB03F37B617B693B6102E084
:1026EC00054B3B6100BF3B6918461C37BD4680BC9F
:1026FC00704700BF0010024000127A00A02F0008A3
:10270C00B02F000800093D0080B485B000AF7860A0
:10271C000A4B1B680A4AA2FB03235B0A7A6802FB7A
:10272C0003F3FB6000BFFB685A1EFA60002BF9D163
:10273C0000BF00BF1437BD4680BC70474C00002062
:10274C00D34D621080B582B000AF78607B68002BEF
:10275C0001D1012341E07B6893F83D30DBB2002BC3
:10276C0006D17B68002283F83C207868FFF756F886
:10277C007B68022283F83D207B681A687B680433EF
:10278C001946104600F06EFA7B68012283F8462049
:10279C007B68012283F83E207B68012283F83F206E
:1027AC007B68012283F840207B68012283F841205A
:1027BC007B68012283F842207B68012283F8432046
:1027CC007B68012283F844207B68012283F8452032
:1027DC007B68012283F83D20002318460837BD464C
:1027EC0080BD000080B485B000AF78607B6893F842
:1027FC003D30DBB2012B01D0012335E07B68022296
:10280C0083F83D207B681B68DA687B681B6842F0A4
:10281C000102DA607B681B68164A934209D07B6818
:10282C001B68B3F1804F04D07B681B68124A93423B
:10283C0011D17B681B689B6803F00703FB60FB6886
:10284C00062B10D07B681B681A687B681B6842F0EB
:10285C0001021A6007E07B681B681A687B681B68BA
:10286C0042F001021A60002318461437BD4680BCA2
:10287C00704700BF002C01400004004080B582B0BE
:10288C0000AF78607B681B681B6903F00203022BA6
:10289C0022D17B681B68DB6803F00203022B1BD17F
:1028AC007B681B686FF002021A617B6801221A7741
:1028BC007B681B689B6903F00303002B03D07868CB
:1028CC0000F0B4F905E0786800F0A7F9786800F03A
:1028DC00B6F97B6800221A777B681B681B6903F0CA
:1028EC000403042B22D17B681B68DB6803F0040310
:1028FC00042B1BD17B681B686FF004021A617B6888
:10290C0002221A777B681B689B6903F44073002BC7
:10291C0003D0786800F08AF905E0786800F07DF95A
:10292C00786800F08CF97B6800221A777B681B684A
:10293C001B6903F00803082B22D17B681B68DB683A
:10294C0003F00803082B1BD17B681B686FF008028F
:10295C001A617B6804221A777B681B68DB6903F0B9
:10296C000303002B03D0786800F060F905E0786869
:10297C0000F053F9786800F062F97B6800221A774E
:10298C007B681B681B6903F01003102B22D17B683A
:10299C001B68DB6803F01003102B1BD17B681B68D2
:1029AC006FF010021A617B6808221A777B681B682B
:1029BC00DB6903F44073002B03D0786800F036F920
:1029CC0005E0786800F029F9786800F038F97B6840
:1029DC0000221A777B681B681B6903F00103012B2B
:1029EC000ED17B681B68DB6803F00103012B07D158
:1029FC007B681B686FF001021A617868FEF782FE33
:102A0C007B681B681B6903F08003802B0ED17B68ED
:102A1C001B68DB6803F08003802B07D17B681B6885
:102A2C006FF080021A61786800F06BFA7B681B68A3
:102A3C001B6903F04003402B0ED17B681B68DB68DD
:102A4C0003F04003402B07D17B681B686FF04002FA
:102A5C001A61786800F0FCF87B681B681B6903F04E
:102A6C002003202B0ED17B681B68DB6803F020034E
:102A7C00202B07D17B681B686FF020021A617868E5
:102A8C0000F036FA00BF0837BD4680BD80B584B073
:102A9C0000AF786039600023FB737B6893F83C309F
:102AAC00012B01D10223B4E07B68012283F83C2086
:102ABC007B68022283F83D207B681B689B68BB60A7
:102ACC00BB6823F07703BB60BB6823F47F43BB6018
:102ADC007B681B68BA689A603B681B68B3F5005F3B
:102AEC003ED0B3F5005F00F28780B3F5805F00F055
:102AFC008680B3F5805F7FD8702B1AD0702B7BD873
:102B0C00602B50D0602B77D8502B3CD0502B73D8E7
:102B1C00402B58D0402B6FD8302B64D0302B6BD837
:102B2C00202B60D0202B67D8002B5CD0102B5AD0D8
:102B3C0062E07B6818683B6899683B685A683B6838
:102B4C00DB6800F05EF97B681B689B68BB60BB6848
:102B5C0043F07703BB607B681B68BA689A604FE0F0
:102B6C007B6818683B6899683B685A683B68DB6807
:102B7C0000F047F97B681B689A687B681B6842F415
:102B8C0080429A603CE07B6818683B6859683B68F7
:102B9C00DB681A4600F0BEF87B681B6850211846AB
:102BAC0000F015F92CE07B6818683B6859683B68A5
:102BBC00DB681A4600F0DCF87B681B68602118465D
:102BCC0000F005F91CE07B6818683B6859683B68A5
:102BDC00DB681A4600F09EF87B681B68402118469B
:102BEC0000F0F5F80CE07B681A683B681B68194626
:102BFC00104600F0ECF803E00123FB7300E000BF8B
:102C0C007B68012283F83D207B68002283F83C20FE
:102C1C00FB7B18461037BD4680BD80B483B000AF37
:102C2C00786000BF0C37BD4680BC704780B483B061
:102C3C0000AF786000BF0C37BD4680BC704780B4D5
:102C4C0083B000AF786000BF0C37BD4680BC7047C6
:102C5C0080B483B000AF786000BF0C37BD4680BC39
:102C6C007047000080B485B000AF786039607B6835
:102C7C001B68FB607B68254A934207D07B68B3F1E5
:102C8C00804F03D07B68224A934208D1FB6823F023
:102C9C007003FB603B685B68FA681343FB607B68FE
:102CAC001A4A934207D07B68B3F1804F03D07B68FC
:102CBC00174A934208D1FB6823F44073FB603B68CE
:102CCC00DB68FA681343FB60FB6823F080023B6807
:102CDC005B691343FB607B68FA681A603B689A680F
:102CEC007B68DA623B681A687B689A627B68074A81
:102CFC00934203D13B681A697B681A637B68012293
:102D0C005A6100BF1437BD4680BC7047002C01408F
:102D1C000004004080B487B000AFF860B9607A60FE
:102D2C00FB681B6A7B61FB681B6A23F00102FB6872
:102D3C001A62FB689B693B613B6923F0F0033B61C2
:102D4C007B681B013A6913433B617B6923F00A03DF
:102D5C007B617A69BB6813437B61FB683A699A6152
:102D6C00FB687A691A6200BF1C37BD4680BC70478D
:102D7C0080B487B000AFF860B9607A60FB681B6AFA
:102D8C007B61FB681B6A23F01002FB681A62FB680C
:102D9C009B693B613B6923F470433B617B681B037C
:102DAC003A6913433B617B6923F0A0037B61BB68E9
:102DBC001B017A6913437B61FB683A699A61FB6872
:102DCC007A691A6200BF1C37BD4680BC704780B45C
:102DDC0085B000AF786039607B689B68FB60FB68EE
:102DEC0023F07003FB603A68FB68134343F007035E
:102DFC00FB607B68FA689A6000BF1437BD4680BCE4
:102E0C00704780B487B000AFF860B9607A603B60FF
:102E1C00FB689B687B617B6923F47F437B613B6828
:102E2C001A027B681A43BB6813437A6913437B61AC
:102E3C00FB687A699A6000BF1C37BD4680BC70473E
:102E4C0080B485B000AF786039607B6893F83C3013
:102E5C00012B01D1022341E07B68012283F83C2045
:102E6C007B68022283F83D207B681B685B68FB60F3
:102E7C007B681B689B68BB60FB6823F07003FB607E
:102E8C003B681B68FA681343FB607B681B68FA6835
:102E9C005A607B681B68144A934209D07B681B6894
:102EAC00B3F1804F04D07B681B68104A93420CD15D
:102EBC00BB6823F08003BB603B685B68BA68134354
:102ECC00BB607B681B68BA689A607B68012283F8D8
:102EDC003D207B68002283F83C20002318461437E1
:102EEC00BD4680BC704700BF002C01400004004070
:102EFC0080B483B000AF786000BF0C37BD4680BC97
:102F0C00704780B483B000AF786000BF0C37BD460B
:102F1C0080BC704703460244934200D1704703F8CB
:102F2C00011BF9E770B500260C4D0D4C641BA41069
:102F3C00A64209D100F01AF800260A4D0A4C641B6F
:102F4C00A410A64205D170BD55F8043B9847013634
:102F5C00EEE755F8043B98470136F2E7B42F00082A
:102F6C00B42F0008B42F0008B82F0008F8B500BF24
:102F7C00F8BC08BC9E467047F8B500BFF8BC08BC4E
:042F8C009E467047A6
:102F90000000000000000000010203040607080909
:102FA00002030405060708090A0B0C0D0E0F10108A
:042FB000010200001A
:042FB40031010008DF
:042FB8000D010008FF
:102FBC000020000000400000008000000100000024
:102FCC0001000000010000000100000001000000F1
:102FDC0001000000010000000100000001000000E1
:102FEC00010000000100000001000000F4010000DD
:102FFC000500000003000000020000000024F400A3
:08300C001000000001000000AB
:04000005080018E1F6
:00000001FF
